S0180000476363426F61726450726F6A656374312E737265630F
S1130000880E002065420000614200006142000049
S113001000000000000000000000000000000000DC
S11300200000000000000000000000006142000029
S1130030000000000000000061420000791100008F
S1130040614200006142000061420000011D0000A5
S113005061420000614200009139000061420000E9
S11300606142000061420000614200006142000000
S113007061420000614200006142000061420000F0
S113008061420000614200006142000061420000E0
S113009061420000614200006142000061420000D0
S11300A061420000614200006142000061420000C0
S11300B00000000010B5064C2378002B07D1054B37
S11300C0002B02D0044800E000BF0123237010BDC0
S11300D0DC0000200000000008490000084B10B5B7
S11300E0002B03D00749084800E000BF0748036815
S11300F0002B00D110BD064B002BFBD09847F9E72D
S113010000000000E0000020084900000849000049
S11301100000000070B50D00074B1C78E4B2002C01
S113012003D0002903D1054B9847200070BD044B30
S113013098472C00F9E7C046F9000020711300002D
S1130140C513000070B50D00074B1C78E4B2002CF9
S113015003D0002903D1054B9847200070BD044B00
S113016098472C00F9E7C046F90000201914000054
S1130170D914000070B50E0015001C0000281CD016
S11301808023174A9A18126A134201D1002D0AD10A
S1130190144B1B6ADB0501D4002C09D1012130006A
S11301A0114B984770BD012128000F4B9847F9E780
S11301B0012120000C4B9847F4E7002130000A4B42
S11301C09847002D06D1002CECD000212000064BCE
S11301D09847E7E700212800034B9847F3E7C04618
S11301E000280040802800404501000030B583B05D
S11301F00C4B984701AC0023237001226270A3705A
S113020021000420084DA84721002620A8472100EA
S11302102720A84721002820A84721002920A847F3
S113022003B030BD7D0F0000F51D000070B5D14B4B
S11302309847D14B1B6A1B090122534001241C40DF
S1130240CE4B1B78A34205D021000220CC4B98470B
S1130250CA4B1C70CB4B1B6A5B0A0122534001241E
S11302601C40C94B1B78A34205D021000120C44B7C
S11302709847C54B1C70C34B1B6A9B090122534012
S113028001241C40C14B1B78A34205D02100082047
S1130290BB4B9847BD4B1C70BD4B01221868596875
S11302A0BC4B98470400BC4B1B78834206D0002308
S11302B03A221E21B94DA847B74B1C70B84B0122F6
S11302C018685968B34B98470400B34B9B79834231
S11302D006D000233B221F21B04DA847AE4B9C7192
S11302E0B04B012218685968AA4B98470400AA4BDE
S11302F01B7B834206D000233C222021A74DA84724
S1130300A54B1C73A84B012218685968A14B984748
S11303100400A14B9B7C834206D000233D22212173
S11303209E4DA8479C4B9C74A04B012218685968A9
S1130330984B98470400984B1B7E834206D00023B9
S11303403E222221954DA847934B1C76984B0122BF
S1130350186859688F4B984704008F4A927F8242ED
S113036031D0002826D08023834A9A18126A134277
S113037004D101213F208F4B984722E0814B1B6A17
S1130380DB0512D4012140207D4DA84701212D20F9
S1130390884EB04796204000874B984700212D2077
S11303A0B04700214020A8470BE001212320814BC6
S11303B0984706E0002123207E4DA84700213F20D6
S11303C0A847754B9C777D4B012218685968714B7F
S11303D098470400242270498A5C824232D0002863
S11303E026D08023644A9A18126A134204D1012148
S11303F04020704B984722E0624B1B6ADB0512D405
S1130400012140205E4DA84701212420694EB047B8
S113041096204000684B984700212420B0470021D3
S11304204020A8470BE001212420624B984706E0B6
S1130430002124205F4DA84700214020A847242301
S1130440554AD4545E4B012218685968514B984759
S113045004002A2250498A5C824232D0002826D0E5
S11304608023454A9A18126A134204D1012141207B
S1130470504B984722E0434B1B6ADB0512D4012101
S113048040203F4DA847012125204A4EB0479620E1
S11304904000494B984700212520B04700214020C7
S11304A0A8470BE001212520424B984706E0002194
S11304B02520404DA84700214120A8472A23364A39
S11304C0D454404B012218685968324B98470400B1
S11304D0302231498A5C824232D0002826D08023DF
S11304E0254A9A18126A134204D101214220314B41
S11304F0984722E0234B1B6ADB0512D401214020DC
S11305001F4DA847012126202A4EB04796204000BF
S1130510294B984700212620B04700214020A847B6
S11305200BE001212620234B984706E000212620DA
S1130530204DA84700214220A8473023164AD4540E
S1130540214B012218685968124B9847040036223F
S113055011498A5C82425FD0002853D08023064A26
S11305609A18126A134231D101214320114B984742
S11305704FE0C0467910000000280040FA00002037
S11305801501000080280040F8000020FB00002036
S1130590004700003D110000A40100207501000087
S11305A008470000104700001847000020470000DB
S11305B028470000450100002112000030470000D8
S11305C03847000040470000F8460000504B1B6AC3
S11305D0DB0512D4012140204E4DA84701212720DC
S11305E04D4EB047962040004C4B984700212720A1
S11305F0B04700214020A8470BE001212720464BAB
S1130600984706E000212720434DA84700214320B6
S1130610A8473623424AD454424B012218685968E9
S1130620414B984704003E4B5B78834206D000233D
S113063000222B213D4DA847394B5C703C4B0122D5
S113064018685968384B98470400354AD279824271
S113065023D000281BD02E4B1B6ADB0512D40121AA
S113066040202C4DA847012114202B4EB047962042
S113067040002A4B984700211420B0470021402015
S1130680A84708E001211420234B984703E00021E8
S11306901420214B9847224BDC71264B0122186809
S11306A05968214B984704001D4B5B7B834206D05D
S11306B0002300221A211D4DA847194B5C731E4BC1
S11306C0012218685968184B98470400144AD27CD0
S11306D0824239D0002831D00D4B1B6ADB0512D47D
S11306E0012140200B4DA847012108200A4EB047A4
S11306F096204000094B984700210820B04700216C
S11307004020A8471EE001210820034B984719E028
S1130710802800401501000045010000211200005E
S1130720A4010020384800003D11000075010000BC
S113073000480000584800009047000000210820AD
S1130740DF4B9847DF4BDC74DF4B01221868596894
S1130750DE4B98470400DB4B5B7E834206D00023CC
S113076000221521DA4DA847D64B5C76D94B0122DD
S113077018685968D54B98470400D24BDB7F8342F5
S113078006D0002300221721D14DA847CD4BDC779A
S1130790D14B012218685968CC4B98470400252393
S11307A0C84AD35C834207D0002300221C21C84DD1
S11307B0A8472523C34AD454C84B01221868596852
S11307C0C24B984704002B23BE4AD35C834207D014
S11307D02F2300221821BE4DA8472B23B94AD454F5
S11307E0BF4B012218685968B84B9847040031235D
S11307F0B44AD35C834207D0002300220C21B44DB9
S1130800A8473123AF4AD454B64B0122186859681B
S1130810AE4B984704003723AA4AD35C834207D0DF
S1130820302300221221AA4DA8473723A54AD454C5
S1130830AD4B012218685968A44B984704003D2326
S1130840A04AD35C834207D0312300221321A04D58
S1130850A8473D239B4AD454A44B012218685968E5
S11308609A4B98470400974B9B78834206D0002309
S113087000223921964DA847924B9C709C4B012233
S113088018685968914B984704008E4B1B7A834231
S113089006D03423002204218D4DA847894B1C72B5
S11308A0944B012218685968884B98470400854B7B
S11308B09B7B834206D0002300221621844DA84747
S11308C0804B9C738C4B0122186859687F4B984766
S11308D004007C4B1B7D834206D0002300220721A9
S11308E07B4DA847774B1C75844B012218685968C7
S11308F0764B98470400734B9B7E834206D00023BB
S113090000220921724DA8476E4B9C767C4B012234
S1130910186859686D4B984704002023694AD35CD2
S1130920834207D0002300220A21694DA8472023CF
S1130930644AD454734B012218685968634B98472E
S1130940040026235F4AD35C834207D0002300229D
S11309500B215F4DA84726235A4AD4546A4B0122DF
S113096018685968594B984704002C23554AD35C9E
S1130970834207D0302300220D21554DA8472C2354
S1130980504AD454614B0122186859684F4B984718
S1130990040032224B498A5C824224D000281BD0B6
S11309A05B4B1B6ADB0512D401212020594DA8475B
S11309B001213020424EB04796204000564B9847C4
S11309C000213020B04700212020A84708E0012161
S11309D00E203B4B984703E000210E20384B9847EC
S11309E03223384AD4544D4B012218685968374B86
S11309F098470400382233498A5C824224D0002874
S1130A001BD0434B1B6ADB0512D401212020414D2E
S1130A10A847012131202A4EB047962040003E4B82
S1130A20984700213120B04700212020A84708E042
S1130A3001210F20224B984703E000210F20204B77
S1130A40984738231F4AD454354B012218685968F3
S1130A501E4B984704001B4B5B7A834206D0352318
S1130A6000221D211A4DA847164B5C722D4B012202
S1130A7018685968154B98470400124AD27B824281
S1130A8058D0002850D0224B1B6ADB0512D4012118
S1130A902020204DA84701213520094EB04796203B
S1130AA040001D4B984700213520B04700212020ED
S1130AB0A8473DE001211B20014B984738E0C04680
S1130AC045010000A4010020104800003D11000071
S1130AD075010000304800007048000040480000E4
S1130AE0B8470000F0470000F847000070470000D6
S1130AF0484700002048000078470000A047000055
S1130B00A8470000B0470000C0470000C8470000E5
S1130B10802800401501000021120000D047000089
S1130B20684800006048000000211B20CD4B984716
S1130B30CD4BDC73CD4B012218685968CC4B9847D8
S1130B400400C94A527D824223D000281BD0C94BDD
S1130B501B6ADB0512D401214020C74DA84701219F
S1130B603520C04EB04796204000C44B9847002122
S1130B703520B04700214020A84708E00121062085
S1130B80B84B984703E000210620B64B9847B64B74
S1130B905C75BB4B012218685968B54B9847040033
S1130BA0B14BDB7E834206D0002300221921B54DD0
S1130BB0A847AD4BDC76B44B012218685968AC4B9E
S1130BC0984704002123A84AD35C834207D000231A
S1130BD000220521AB4DA8472123A34AD454AB4B93
S1130BE0012218685968A24B9847040027239E4A9B
S1130BF0D35C834207D0382300221121A14DA8479A
S1130C002723994AD454A24B012218685968984B57
S1130C10984704002D2294498A5C824224D00028FB
S1130C201BD0944B1B6ADB0512D401212020924D6A
S1130C30A847012138208B4EB047962040008F4BA7
S1130C40984700213820B04700212020A84708E019
S1130C5001211020834B984703E000211020814B91
S1130C6098472D23804AD4548A4B01221868596826
S1130C707F4B9847040033237B4AD35C834207D0DD
S1130C800023002236217F4DA8473323764AD454CB
S1130C90814B012218685968754B98470400392321
S1130CA0714AD35C834207D0002300223721754D5B
S1130CB0A84739236C4AD454784B012218685968E0
S1130CC06B4B984704002923674AD35C834207D0BF
S1130CD00023002250216B4DA8472923624AD45493
S1130CE06F4B012218685968614B984704003523FB
S1130CF05D4AD35C834207D0002345224F21614DD6
S1130D00A8473523584AD454664B012218685968B9
S1130D10574B984704003B23534AD35C834207D084
S1130D204B2300225221574DA8473B234E4AD4540B
S1130D305D4B0122186859684D4B984704002F23D6
S1130D40494AD35C834207D04E23002251214D4DA2
S1130D50A8472F23444AD454544B01221868596895
S1130D60434B984704003A233F4AD35C834207D05D
S1130D70442300222821434DA8473A233A4AD45415
S1130D804B4B012218685968394B984704002323B8
S1130D90354AD35C834207D0002329222C21394DC4
S1130DA0A8472323304AD454424B01221868596877
S1130DB02F4B984704002C4BDB7D834206D0002345
S1130DC04C222A212F4DA847274BDC753A4B012290
S1130DD018685968264B98470400234AD27A8242FD
S1130DE003D0002802D1204BDC7270BD8023334A2B
S1130DF09A18126A134212D1012120201E4DA847CD
S1130E0001212E20174EB047962040001B4B9847D7
S1130E1000212E20B04700212020A847E3E7154BEE
S1130E201B6ADB050BD401212E200E4DA84796200A
S1130E304000124B984700212E20A847D3E70121F8
S1130E4020200D4DA84701212D20064EB0479620A5
S1130E5040000A4B984700212D20B0470021202054
S1130E60A847C0E745010000A40100206047000036
S1130E703D110000802800401501000021120000EF
S1130E80504800007501000050470000E84700008A
S1130E90E04700006847000080470000D847000092
S1130EA018480000484800008847000098470000A0
S1130EB02848000058470000084800000028004067
S1130EC00122024B1A7001207047C046F90000202D
S1130ED00022014B1A707047F9000020F0B5C64695
S1130EE000B58C46C3090026002B04D14609F6013F
S1130EF01F4B984646441F2318400124270087406F
S1130F0077611B4B98461A6A1A4963465800C518FC
S1130F106D00D20B624001231A406A544246156A9E
S1130F206246821852008A182D0B65401D40557088
S1130F3045462D6AAD0965401D40957045462D6AAC
S1130F406D0965401D40D5700B4DA8462D6AED080E
S1130F5065401D4015714246126A604440000818FD
S1130F609208544023404371B76104BC9046F0BDDD
S1130F7000280040340300208028004070B582B06F
S1130F8001AC0023237001266670A37021000F209A
S1130F90344DA84721000C20A84721000620A8476B
S1130FA021000520A84721002320A8472100222052
S1130FB0A847267021000720A84721000920A84738
S1130FC021000820A84721000A20A84721000B205F
S1130FD0A84721002F20A84721002E20A847210040
S1130FE02D20A84721002C20A84721000E20A84727
S1130FF021000D20A8471C4B80229A618021890082
S113100099610139FF3999618021C9009961802171
S1131010090199619C466244802109029161802002
S1131020C0019061802189019161802464019461EF
S1131030986199610D4D0E4C0E482E000936FF360D
S1131040002204E0183506340630B54208D02900E1
S11310500023E254C25404C10133062BF9D1F1E751
S113106002B070BDF51D000000280040E80100201A
S113107034030020F0020020F8B5DE4657464E4601
S11310804546E0B500210720264CA0470121092050
S1131090A04702210820A04703210A20A0470421D9
S11310A00B20A04705212F20A04706212E20A04772
S11310B007212D20A04708212C20A04709210E201C
S11310C0A0470A210D20A047174B9946174E184BED
S11310D09A46184B98469B461BE001340435062C6F
S11310E00DD0C04723382B689842F6D34B461B5D7E
S11310F0325D9A42F1D03355D8472860EDE7062394
S11311009C46E144063612339C46E2440A4B9E4216
S113111002D055460024E4E73CBC90469946A246DA
S1131120AB46F8BDDD0E000034030020F0020020C1
S1131130E8010020D51100003203002082B0030032
S11311400090019100200A2B09D8052907D8002A0C
S113115007D15A00D3185B00054AD318585C02B073
S113116070475A00D3185B00024AD318585CF6E75C
S113117034030020F0020020024A13680133136094
S11311807047C046FC00002010B500200C4B984767
S1131190FA2189000B4B984701380B4B98420ED823
S11311A00A4A50600A48036A1B021B0AC021090646
S11311B00B430362002393600733136010BDFEE703
S11311C01124000061430000FFFFFF0010E000E075
S11311D000ED00E0014B18687047C046FC00002099
S11311E070B50020084B98470500084CFA21890087
S11311F0A047074B186007492800A047064B186012
S11312000522064B1A6070BD1124000061430000E2
S11312100000002040420F000400002010E000E025
S113122030B5084B1C68084A002580214902013862
S113123007D3002CFBD05460956013680B42FCD09C
S1131240F5E730BD0000002010E000E0002070470A
S11312500B4B5B881A0A0020022A00D07047FD322B
S11312601A42FBD1064BDB88012BF7D1044B054A0C
S11312709A60054A1A6101229A810130EEE7C0465C
S113128068050020140100208D1200007047000042
S113129010B50024074B1C70074B1C70074B1C70C7
S11312A0082200210648074B9847074B1C70074B40
S11312B0984710BD0801002004010020000100200F
S11312C00C010020E7460000010100204943000012
S11312D010B5014B984710BD5543000010B5034BA2
S11312E0034A04490448054CA04710BD51120000AC
S11312F01C00002004010020080100207D150000CE
S113130010B582B00B4B1B780020002B01D002B02B
S113131010BD094A094B110011CB11C10021084B22
S11313201970084B009308238120074CA047014AF9
S11313301070ECE700010020180100200C010020CF
S1131340010100204D130000D12F000010B5002230
S1131350044B1A70044B1B78002B00D110BD034BB7
S11313609847FBE700010020010100200113000061
S113137010B582B0EFF310835A425341019372B611
S1131380BFF35F8F00220B4B1A70019C0A4A13783B
S1131390834313700122094B1A70094B9847002CA0
S11313A005D00122034B1A70BFF35F8F62B6012090
S11313B002B010BDD80000200C0100200101002063
S11313C00113000010B582B0EFF310835A42534169
S11313D0019372B6BFF35F8F00220B4B1A70019C0E
S11313E00A4B1A78104318700122094B1A70094BE2
S11313F09847002C05D00122034B1A70BFF35F8F6E
S113140062B6012002B010BDD80000200C010020FB
S1131410010100200113000030B583B0EFF3108305
S11314205A425341019372B6BFF35F8F0022264B99
S11314301A70019C254B9B78002B16D0984241D002
S1131440224B0332D97800290FD0814216D00132C1
S1131450D2B20133082AF5D1002C30D001221A4B24
S11314601A70BFF35F8F62B629E0002C27D00122E7
S1131470154B1A70BFF35F8F62B620E0082AEBD0D9
S1131480062A0CD811498B18551C0620821AD2B290
S1131490AA188A185978197001339342FAD1002294
S11314A00A4BDA7101320A4B1A700A4B9847002C26
S11314B005D00122044B1A70BFF35F8F62B601207E
S11314C003B030BD0222DDE7D80000200C0100206B
S11314D0010100200113000010B582B0EFF3108366
S11314E05A425341019372B6BFF35F8F00221F4BE0
S11314F01A70019C1E4B9B78002B35D0984215D056
S11315001B4A0323D17800291AD081420ED001331B
S1131510DBB20132082BF5D10020002C22D00122AD
S1131520124B1A70BFF35F8F62B61BE00120002CD0
S113153018D001220D4B1A70BFF35F8F62B611E011
S1131540082BE9D00A4AD05401220A4B1A700A4BDC
S113155098470120002C05D00122044B1A70BFF3D8
S11315605F8F62B602B010BD0223EBE7D800002003
S11315700C010020010100200113000070B50500DA
S113158014003B4A127850B2002805DB6024224044
S11315900020202A4FD070BD6020024003D134487F
S11315A0407806280DD00020202AF4D1304A527801
S11315B0022A34D0032A38D00020012AEBD19847DC
S11315C0E9E72C4B98470300827A0020212AE2D1D4
S11315D0274A5288120A212A13D0D97B002091422B
S11315E0D9D1234A9460197C09331B7A1B020B431B
S11315F0D088191C9BB2834200D9011C918101201F
S1131600C9E71B4A1900093191605B7AD088191C1B
S11316109BB2834200D9011C91810120BBE7144B8A
S11316209D6001229A810120B5E7114B9960012246
S11316309A810120AFE70E4A52780A2A06D00B2A73
S11316400AD00020092AA6D19847A4E7084B5B8852
S11316501B0A2B7001209EE7054BDB880020002B22
S113166000D098E7024B5B880B70013093E7C046CB
S1131670680500201518000010B5114B1B681A6886
S11316809478D3781B022343D2180378C01890426D
S113169010D24378042B0FD08B420AD00378C018A1
S11316A0904205D24378042B08D08B42F6D100E057
S11316B0002010BD0020FCE70020FAE70020F8E736
S11316C02C01002010B5034B5B887F201840024B8F
S11316D0984710BD68050020A931000070B5194B6A
S11316E01B780022002B29D0174B1B681B681C7920
S11316F0844223D9154A13609A78DC78240214436F
S11317001C19A3421CD20025012607E00F4A1360CE
S11317100FE01A789B183500A3420CD25A78042A99
S1131720F7D19A788242F4D1DA788A42F1D1002D45
S1131730ECD1012202E0054A13600022100070BDC2
S11317400022FBE7280100202C01002030010020AA
S1131750F0B5C64600B504000021134B9847051E9A
S113176003D1280004BC9046F0BD104B1B685B6895
S1131770A200D3589846DB689847010020000A4B22
S11317809847051EEDD00A4B1C680A4E0A4F0521E6
S11317902000B047041E02D08078B847F7E74346DC
S11317A05B689847DDE7C046DD1600002C01002089
S11317B03001002079160000E92C0000F8B505007E
S11317C00F4B9847002819D00E4B1C680E4E0F4F34
S11317D005212000B047041E09D003794279120282
S11317E01A43C1788078B8470028F1D106E0084B45
S11317F01B685B68AD00EB581B689847F8BDC04692
S1131800DD1600003001002079160000412D000093
S11318102C010020014B18687047C046300100209D
S113182010B5014B984710BD5932000070B50E4BEE
S11318301B78002B11D00D4B1B681B681B79002BE8
S11318400BD000240A4E094D2000B0470134E4B205
S11318502B681B681B79A342F6D80023024A137035
S1131860044A138070BDC046280100202C010020CA
S1131870511700002001002070B50E4B1B78002B7F
S113188017D00D4B1B681A681279002A11D0002456
S1131890094D06E00134E4B22B681A681279A242B9
S11318A007D95B68A200D3581B69002BF2D0984774
S11318B0F0E770BD280100202C010020F8B5AB4BE7
S11318C000229A811A615A611B785AB2002A13DBEA
S11318D060221A4200D1D7E0A44B1A781F23134088
S11318E0012B00D174E1A14B1A781F23134000206F
S11318F0022B00D1CAE1F8BD9C4AD2880020002AFC
S1131900F9D060211942E7D11F210B4008D1974932
S11319104978062923D0082900D184E0002917D06A
S1131920012B00D187E0022BD6D1904B5B780020AD
S1131930002B00D0A6E1022AD5D18C4B18798C4B10
S113194098478C4B1880022118008B4B9847FCE079
S1131950022AC8D102318948874B9847F5E0834B66
S11319605A88130A022B23D0D9B202290FD9032B88
S113197034D00F2B00D082E1814B98680028B2D07C
S11319808378C178090219437B4B984707E0012B00
S113199000D074E17A4B18680178774B9847734B01
S11319A0DA889B89934200D8CFE0704B9A81CCE0CF
S11319B0D2B2734B1B685B7C934200D893E7704BA5
S11319C05B68D200D0588378C178090219436A4B06
S11319D09847664B9B6802225A70E0E7FF231A403F
S11319E0012A1DD0002A16D0022A00D074E7654CC3
S11319F00B21654A02320023E05C1080013302327D
S1131A00D8B28842F8D3490002315F48017089B2E4
S1131A10594B9847C3E704215C48574B9847BEE7A6
S1131A205B4C0621E5E7012A00D05CE70121594817
S1131A30514B984789E04D4949780A2900D072E70B
S1131A40012A00D0C4E0534B1B78002B00D1BFE027
S1131A50464B1C79504B1D682B681B79A34200D858
S1131A60B6E0002120004D4B9847002800D133E711
S1131A706B68A400E358DB689847494B1870012150
S1131A8018003D4B984760E01F2213405FD1374A4E
S1131A905278032A00D1F4E0D1B203293BD9052AB4
S1131AA04BD0092A53D1314BDB88002B00D01AE7E5
S1131AB03C4B9847002800D10EE72C4B9A78304BCA
S1131AC01B685B7C9A4200DD06E7374B9847274B3F
S1131AD09B78304A1370002B37D0344A94466344C1
S1131AE0DB00274A5268D3182B4A13601B681B7902
S1131AF0002B2AD000242E4D160000212000A847D8
S1131B00002800D1E8E60134E4B233681B681B798D
S1131B10A342F2D819E0012A19D1144BDB88002B17
S1131B2000D0E0E6114B5B88012B00D0DBE6134AC2
S1131B30138802218B43138007E00C4BDB88002BB6
S1131B4000D0D0E61B4A094B1A610120D3E6012BD1
S1131B5032D0022B00D0BFE6044B5B78012B6DD052
S1131B60032B00D179E000208CE0C04668050020FA
S1131B70492E000022010020C9310000200100206C
S1131B8058000020CC000020A8000020C000002045
S1131B90C4000020280100202C010020DD160000D4
S1131BA024010020B93100002D180000FFFFFF1FA1
S1131BB0BD170000C5160000484A52780B2AC8D148
S1131BC0464BDB88002B03D1454B1B78002B27D1D8
S1131BD0434B1B780020002B00D18CE63F4B1C7933
S1131BE0404B1D682B681B79A34200D883E6002173
S1131BF020003D4B9847002800D174E66B68A20092
S1131C00D558EB68984701002000374B98470028C7
S1131C1000D168E6AB689847002800D06BE662E61E
S1131C202E4B1D795C882800304B9847002800D142
S1131C3052E6E1B228002E4B984723E0274BDB887D
S1131C40002B00D04FE6254B5B88002B00D04AE6E2
S1131C50224B1879274B984714E0204BDB88002B44
S1131C6000D040E61D4B5B88002B00D03BE61B4CAC
S1131C702079214B98472079204B984702E0002097
S1131C8000E00020002800D035E625E6144B1B7840
S1131C90002B00D12FE6134B1B681A681279002A17
S1131CA01AD00025104E0F4F5B68AA00D458E36881
S1131CB0984701002800B047002800D11BE6A3681C
S1131CC09847002800D016E60135EDB23B681A6843
S1131CD01279AA42E8D80EE600200CE66805002036
S1131CE0280100202C010020DD16000051170000FF
S1131CF0BD1700008D2F0000AD2C00005D2E0000EC
S1131D0070B50022104B1A70002310491F25104E85
S1131D100D4C0AE00D4908E023780133DBB223704F
S1131D200F2B10D800211F2BF4D9280018400122B2
S1131D30824048691042EFD04A619B009B59002BB6
S1131D40EAD09847E8E770BD7D03002000240040F6
S1131D5080030020064A137802210B4313700120EC
S1131D6053681942FCD153681842F9D17047C046F0
S1131D700024004000B583B0174A516980239B00BA
S1131D800B43536101A900230B700320134B9847A5
S1131D900320134B9847134A137801210B43137004
S1131DA00131012053681942FCD153681842F9D11A
S1131DB00C4A137810218B4313700B4B19004031DC
S1131DC0002204C38B42FCD10822084B1A60084B42
S1131DD0984703B000BDC04600040040ED24000055
S1131DE07D240000002400408003002000E100E086
S1131DF0551D000000B583B001AB80221A700A782B
S1131E005A704A789A708A78DA701900014B9847A8
S1131E1003B000BDE9250000704700000C4B1B68AF
S1131E20002B06D1EFF31083002B07D00022094BBF
S1131E301A70074A136801331360704772B6BFF310
S1131E405F8F0022044B1A700132024B1A70F0E7C4
S1131E503401002038010020D8000020084B1A6803
S1131E60013A1A601B68002B09D1064B1B78002B22
S1131E7005D00122044B1A70BFF35F8F62B670471E
S1131E803401002038010020D800002010B50828B3
S1131E9003D880001D4B1B589F46002034E01C4B88
S1131EA0186931E01B4B187D0007800F431C1A484A
S1131EB0584329E0164B586926E0154B1B6800204F
S1131EC09B0721D5134980225200CB681342FCD0D2
S1131ED00F4B1A6824231340042B01D00F4813E03E
S1131EE000200F4B98470A4B9B681B041B0C58435C
S1131EF00AE02823074AD35C00209B0704D5044B3F
S1131F00D86801E08020000210BDC0467848000077
S1131F103C010020000C004000093D00006CDC0284
S1131F2011250000F0B5D6464F464646C0B5204BB5
S1131F309A465B69457801784C424C41A1468178C8
S1131F408C46C1788846467A077A847A406819496B
S1131F5048610121484680000422934303434046DC
S1131F600840C00004329343034360460840000124
S1131F700832934303430F40BF01402083433B4354
S1131F800E40F601403083433343793805402D0237
S1131F90094803402B4321400903084803400B43ED
S1131FA0524653611CBC90469946A246F0BDC046B9
S1131FB0001000403C010020FFF8FFFFFFEFFFFF8F
S1131FC010B5837A9B061B0C82899205920D1343EC
S1131FD01A494B60037A427A13438288C4882243A5
S1131FE013434278D20113438278920113430B6066
S1131FF00378042B11D0202B0ED1837B9B06428ABD
S11320001343028A12040E490A4013430B4A936095
S113201011680C4B0B43136010BD837B9B06428AF3
S11320201343028A120406490A401343034A936085
S1132030136804210B431360EEE7C0463C01002003
S11320400000FF0324040000082803D880002D4B5F
S11320501B589F46172054E02B4A137D02210B4343
S1132060137500204DE0294A936902210B439361C3
S1132070002046E0244A138A02210B4313820020E5
S11320803FE0224A536902210B435361002038E0A8
S11320901F490B68022213430B601B4B1A83190060
S11320A0FE32CB681342FCD0194B9A68164B1A6265
S11320B002221A831900FE32CB681342FCD0144B5F
S11320C05A68114BDA6100221A8319000132FF3277
S11320D0CB681342FCD00E4B1B689BB20A4A138395
S11320E000200EE0084928228B5C022003438B5415
S11320F008003821263A435C1342FCD1002000E05A
S1132100002070479C480000000C00400010004074
S11321103C010020F0B5C64600B58CB080225200C8
S1132120654B9A60FD3A654B9A60654A53681E2177
S11321308B431A390B4353608023DB059B78022BB6
S11321400FD08023DB059B785BB2002B09DB802357
S1132150DB0501229A7101329A701A009379002BDF
S1132160FCD009A80023037080221202426083700D
S11321700122C27083720421417043720272514B76
S113218098470520504B984750490122CB681A4282
S1132190FCD0494B197D802252420A431A751A7D9C
S11321A040218A431A7504AB0022002199801A72D7
S11321B05A729A70203119705A70454B1B689B0EE5
S11321C03F2B00D175E004A8837203238373073384
S11321D00382404B8381FF3BC3803F4B43823F4B91
S11321E098473F4B984701AC01260296002565703D
S11321F0257265720523237021000120394B98460E
S113220098470120384FB8476660657065720723A8
S11322102370267221000320C0470320B8470720FB
S1132220294B9847244980225200CB681342FCD0A2
S1132230214A138B80210B4313832C4C0123A3715C
S11322406371237101A94B6000224A704A720732FC
S11322500A700B720020234B98470020224B9847AA
S11322600020234B98472179C9B2224B9847224B2F
S1132270984202D90822A2716271204B984214D864
S11322808023DB059B78002B0FD08023DB059B7814
S11322905BB2002B09DB8023DB0501229A7100224B
S11322A09A701A009379002BFCD00CB004BC9046B1
S11322B0F0BD203B87E7C046000C004000140040FE
S11322C000400041251F000049200000001000408C
S11322D020608000FF01000080BBFFFFC11F0000E1
S11322E00123000025230000D12300000004004046
S11322F01124000061430000808D5B00001BB700C7
S1132300064A536940210B4353610122044B1A705E
S113231019000B781342FCD17047C04600040040FA
S11323200018004070B504000D784B78002B02D0E3
S11323308023DB001D434B7A002B02D080231B013A
S11323401D43486801280FD9431E184231D1022881
S11323502DD90223002201325B009842FBD880234E
S11323605B011D43120415430B7A002B02D080231A
S11323709B011D430426A6401149124A4B68134091
S11323801E42FBD1104B9847A4000D4B9C4664445D
S1132390226A80235B001A402A4322626146094A6A
S11323A04B6813401E42FBD1084B984770BD002276
S11323B0D5E7000480239B0018430543D4E7C046B7
S11323C000180040FC0700001D1E00005D1E0000F8
S11323D010B504000422824009480A4943680B40AE
S11323E01A42FBD1084B9847A400054B9C46644411
S11323F0226A80235B0013432362044B984710BD79
S113240000180040FC0700001D1E00005D1E0000B7
S1132410F8B50400042282401248134943680B4073
S11324201A42FBD1114B98470E4F0834A400E059CF
S11324300007000F0E4B98470600E559ED04ED0F19
S1132440E459240C0B4B9847002D07D1012C07D9D4
S113245021003000084B9847060001E00134E640B3
S11324603000F8BD00180040FC0700001D1E0000ED
S11324708D1E00005D1E00006143000010B50400C5
S1132480094B9847A000094B9C466044802283581E
S113249040210B4383504031403A43581A42FCD008
S11324A0034B984710BDC0461D1E00000018004095
S11324B05D1E000010B50400094B9847A000094BAD
S11324C09C4660448022835840218B438350403192
S11324D0403A43581A42FCD1034B984710BDC046BA
S11324E01D1E0000001800405D1E000070B50400B1
S11324F00D00054B98472A780F2313402034A4007D
S1132500024AA35070BDC046B52400000018004024
S113251010B50400064B98472034A400054BE4583A
S11325202407240F044B98472000044B984710BD00
S11325301D1E0000001800405D1E00001124000054
S113254030B5D378002B35D11378802B29D01B06D6
S113255080246402234354780225AC4306D1947842
S1132560002C20D18024A402234341605478013CF0
S1132570012C1CD90D042D0CA024E4052C431C4370
S113258084620D0CD02424062C431C438462D4782A
S1132590002C22D15B031CD59378012B1ED0416102
S11325A017E00023D7E7C024E4022343DDE70D4C02
S11325B02340DFE741600C04240CA023DB05234304
S11325C083620C0CD0231B0623438362D378002B35
S11325D003D15378013B012B02D930BD8161F8E767
S11325E08160FAE7FFFFFBFF10B50A00C109002371
S11325F0002904D14309DB0105498C4663441F24A7
S11326002040012181401800024B984710BDC0466C
S113261000280040412500007047000010B5054B1C
S11326209847054B9847054B9847054B9847054BEA
S1132630984710BD15210000191E0000192600003E
S1132640751D00001926000010B584B003AB0022EC
S11326501A7001325A709A70DA70274B1B788342D1
S113266007D0002807D1244B1B78002B23D1224B01
S1132670187004B010BD03AB1B5C204AD25CFF2A67
S113268000D1FEE7EFF3108251424A41019272B643
S1132690BFF35F8F00211A4A1170019C1749CA5C6D
S11326A00132CA54002CDED00122154B1A70BFF33C
S11326B05F8F62B6D7E703AAD35C104AD25C002AC4
S11326C000D1FEE7EFF3108251424A41029272B602
S11326D0BFF35F8F00210A4A1170029C0749CA5C4C
S11326E0013ACA54002CC2D00122054B1A70BFF320
S11326F05F8F62B6BBE7C0468401002078030020E8
S1132700D800002043060BD00F2303405B00C00910
S113271018180238830018188000024B18187047E4
S11327200020FCE75C010020F0B5D6464F46464643
S1132730C0B589468D796BB2002B26DB28005E4B31
S1132740984704000F272F40038A98464B461B885E
S11327509A46837C5B076AD4E36853441E00E360B3
S1132760A3689E4200D874E0E360A37C01229343F3
S1132770A3742368002B03D0E1682A000020984743
S11327801CBC90469946A246F0BD28004A4B984787
S113279004000F272F40038A98464B465E88C3687F
S11327A09C466644C66081688E4225D08D1BADB2BE
S11327B0424B9D4206D91D0041461800404B9847A4
S11327C06D1AADB2A27C0023920707D541462800BA
S11327D03C4B984789B24B424B41DBB25B00A27C35
S11327E002218A431343A374626892192B003900AF
S11327F03548364CA047C3E7837C9B070BD4837CC6
S11328000122934383740368002BB9D02A0031005A
S113281000209847B4E7837C022293438374426880
S11328209219002339002848284CA047A8E7436898
S1132830C268944663441E0041468068214B984711
S11328400A007B1E9B01224959183000214B9847EE
S113285082E74A469288524500D086E79E4200D1DC
S113286083E79B1B9DB2154B9D4216D91D00414623
S11328701800134B98476B1A9BB2984514D9A37C44
S113288004221343A3747A1E9201114BD2184346B7
S113289039000D48104CA04772E741462800094B07
S11328A098476B1A9BB2E8E76268921939000648A8
S11328B0094CA04764E7C04605270000FF1F00003D
S11328C0414600006D44000000040020A9380000C7
S11328D0C0030020D5460000FD38000010B50522D5
S11328E0054B1A70054C80212000054B98470021A8
S11328F02000044B984710BD5A010020000400201A
S1132900FD3700002338000070B5084C0621200074
S1132910074DA84704212000A84702212000054BA9
S113292098470220044B984770BDC046000400201D
S11329303D3300001D3300004926000070B5134BE1
S11329401B8B9B061BD41149D0221201CB68134068
S11329509342FBD10E4C022120000E4B98470421D8
S113296020000D4DA8470D4A062120000C4B984726
S113297006212000A84703200A4B984770BD03494D
S113298080225200CB681342FCD0E3E7000C0040E5
S1132990000400203D3300001D330000092900001D
S11329A0F93200004926000010B5064C042120002D
S11329B0054B984702212000044B98470120044B03
S11329C0984710BD000400203D3300001D33000073
S11329D04926000070B582B004001E4B984780233E
S11329E02268937201AD28001B4B984700266E7035
S11329F029002000194B984719492000194B984782
S1132A00194B022200212000184DA847184B002220
S1132A1000212000A847174B012200212000A847CD
S1132A20022200212000144DA8470022002120008A
S1132A30A847012200212000A84721680B890F4ADA
S1132A401A408023DB0013430B810D4B1E7002B030
S1132A5070BDC0462D1800004935000059350000EE
S1132A60800500204D390000BD2B000059330000C3
S1132A708D2E0000C12A0000A9330000FFF3FFFFE0
S1132A805A01002010B50322074B1A70074C08495D
S1132A902000084B9847084B9A6800230021200027
S1132AA0064CA04710BDC0465A0100200004002077
S1132AB0800500204D39000068050020A938000079
S1132AC010B589794BB2002B06DB0E4B1B78022B19
S1132AD00FD0032B11D010BD0A4B1B78012B05D04E
S1132AE0042BF8D10848094B9847F4E7084B98475A
S1132AF0F1E70422034B1A70EDE70348034B9847B0
S1132B00E9E7C0465A01002000040020FD37000018
S1132B10852A000070B5204B1B88204A9489E41A4A
S1132B20A4B2002C18D11E4A11885B189BB21380E2
S1132B301A4AD2889A4223D01A4B1B78002B1FD1F1
S1132B40164B5B69002B23D09847002820D0002225
S1132B50114B1A80114B9C89072C19D90022114B57
S1132B601A7008240C4D2B880C4A9268D218230042
S1132B7000210D480D4EB0472B88E4182C8070BD01
S1132B8004220B4B1A700B4907480B4B9847F6E786
S1132B900122044B1A70E5E7560100206805002065
S1132BA0580100205401002000040020A93800002E
S1132BB05A010020800500204D39000010B50C009A
S1132BC02C4B1B78002B07D02B4B1B69002B00D000
S1132BD098470022274B1A702388082B02D0274BD2
S1132BE0984710BD244A264B1978117059785170B2
S1132BF0D878000299780918518058790002197917
S1132C0009189180D97909029B795B18D3801D4BEF
S1132C109847002816D0184B1B787F2B15D8164BD5
S1132C20DB88002B22D00023174A1380174A138015
S1132C300122104B1A700823114A00211448154C24
S1132C40A047CEE70D4B9847CBE700230E4A1380ED
S1132C500E4A13800222074B1A700823084A0021E7
S1132C600B480C4CA0470C4B9847BAE70B4B9847C2
S1132C70B7E7C0465A01002068050020DD2800009F
S1132C8080050020BD1800005801002056010020D6
S1132C9000040020FD380000152B0000852A0000E8
S1132CA010B5014B984710BD7918000010B5040009
S1132CB001000A480A4B984720000A4B9847837C36
S1132CC0DB070AD5837C0122934383740368002BBA
S1132CD003D0C16822000120984710BD00040020E1
S1132CE09D3700000527000070B582B0040001ADD7
S1132CF028000D4B984720000C4B98472C7000235C
S1132D00EB700B4E290030000A4B98470F212140ED
S1132D1000223000084B9847002221003000074B66
S1132D20984702B070BDC04649350000AD2C000084
S1132D30000400205935000081330000793400007C
S1132D40F0B583B005000F00140001AE3000364B1F
S1132D5098473570082C13D8002201AB5A7028000C
S1132D60324B9847048203213940012938D0022983
S1132D7043D0002303293DD1042201ABDA7032E0B1
S1132D80102C03D8012201AB5A70E8E7202C03D899
S1132D90022201AB5A70E2E7402C03D8032201ABB4
S1132DA05A70DCE7802C03D8042201AB5A70D6E7B2
S1132DB080235B009C4203D8052201AB5A70CEE706
S1132DC080239B009C4203D8062201AB5A70C6E7BD
S1132DD0174A002394420DD8072201AB5A70BEE76C
S1132DE0022201ABDA7001A91248134B9847002361
S1132DF0002806D0180003B0F0BD032201ABDA703E
S1132E00F1E70F2129400B4C0C4B002220000C4E03
S1132E10B0470022290020000A4EB04701222900B1
S1132E202000B0470123E5E74935000005270000ED
S1132E30FF0300000004002059350000292700008A
S1132E4059330000A933000010B501000148024BBA
S1132E50984710BD00040020D337000010B50400CB
S1132E600F2303400020012B00D910BD210004488A
S1132E70044B98472000044B98470120F5E7C046CF
S1132E8000040020FD370000AD2C000070B5344B69
S1132E901B78012B0AD0022B5FD0324B1B69002B0D
S1132EA000D0984700222E4B1A7070BD0D882D4B10
S1132EB09B892D4A14886219934201DA1D1BADB215
S1132EC0284B986800192A002849294B9847641907
S1132ED0A4B2254B1C80082D0AD0224B9C815B692F
S1132EE0002B02D09847002814D0224B9847DCE7E7
S1132EF01C4BDA88204B1B881B199A42EDDD194BB9
S1132F009B89A3420CD00823184A00211B481C4C5F
S1132F10A047CAE70522124B1A701A4B9847C4E718
S1132F20104B5B69002B0BD0984700280FD0124937
S1132F300D4A0B8810881B180B8000231380E2E7CE
S1132F400522074B1A7000200E4B9847ADE7052267
S1132F50034B1A700B4B9847A7E70B4B9847A4E712
S1132F605A01002068050020560100208005002039
S1132F70D5460000852A00005801002000040020E6
S1132F80FD3800005D2E0000152B000070B5040014
S1132F900F2303400020012B00D970BD2000094BF2
S1132FA09847050021000848084B9847AB7C01204E
S1132FB0DB07F2D5AB7C01229343AB742B689847B3
S1132FC00120EAE705270000000400202338000060
S1132FD0F0B587B005000391029201930F260640D5
S1132FE00024012E02D9200007B0F0BD644B98479D
S1132FF0041E00D0BDE02800624B98470700EFF3A1
S113300010835A425341059372B6BFF35F8F002277
S11330105D4B1A70059B827CD20708D5002BE2D049
S11330200122594B1A70BFF35F8F62B6DBE7827CD3
S113303001210A438274002B05D00122524B1A70DD
S1133040BFF35F8F62B6029B7B60019BBB60002372
S1133050FB600C9B3B600123039A13405A00BB7C2A
S113306002218B43134304229343BB746BB2002BA2
S113307020DB019B002B6FD09CB2444B9C425AD95D
S1133080398A1C001800424B9847631A9AB23B8A4B
S11330909A4257D2BA7C04210A43BA74721E92012E
S11330A03C49521831003C483C4CA04744424441FE
S11330B0E4B298E7019B002B27D09DB2334B9D428D
S11330C006D9398A1D001800314B98476B1A9DB2F6
S11330D0BB7C9B0707D5398A2800314B984789B2B6
S11330E04C424C41E4B2012020404000BC7C02230D
S11330F09C430443BC742B00029A31002648294C9B
S1133100A04744424441E4B26DE7BB7C9B0705D52C
S1133110BB7C02229343BB740025ECE7BB7C0122F9
S11331209343BB740C9B002B25D02A000021002064
S11331309847012457E7398A2000194B9847631AA6
S11331409AB2A4E71300029A31001348134CA04723
S113315044424441E4B246E7BB7C01229343BB743E
S11331600C9B002B09D02A00002100209847012441
S113317039E7002437E7012435E7012433E7C04663
S1133180492E000005270000D8000020FF1F000082
S113319041460000C003002000040020FD38000068
S11331A06D440000A9380000024B1B6880221043C4
S11331B09872704700040020024B1B68987A4006FE
S11331C0400E704700040020014B986099817047BD
S11331D06805002070B50320164B9847164C2268EA
S11331E0138901218B431381144A03312000144EA7
S11331F0B047144A00212000B047134A012120009F
S1133200B047124A02212000B04704212000104D8B
S1133210A84700212000A84701212000A847022137
S11332202000A8470B4A06212000B04706212000B1
S1133230A84770BD4926000000040020A929000009
S1133240F9320000A12C0000D52900003D2900001E
S11332501D3300000929000070B582B0EFF310831C
S11332605A425341009372B6BFF35F8F00221A4B48
S11332701A70009C01AD2800184B98470323AB70CB
S1133280174E2A008221C9053000164B984730009A
S1133290154B9847154B1B8B9B0615D41349D0220D
S11332A01201CB6813409342FBD10120104B984785
S11332B0104B9847002C05D00122074B1A70BFF31E
S11332C05F8F62B602B070BD084980225200CB689D
S11332D01342FCD0E9E7C046D8000020714000004A
S11332E000040020814000007D390000000C0040F3
S11332F049260000D531000010B50B002E339B0089
S11333001A50AA2252004900835A034C095B0B430A
S11333108352002010BDC046D44800004900064B2B
S1133320CB5A02689383AB214900425A1A43425252
S11333300268138300207047D44800004900054BFD
S1133340CA5AAB214900435A9343435203689A82B1
S113335000207047D448000010B58C00A418343401
S1133360A4000419636040185930FF3003780349FE
S11333708A5C13430370002010BDC046E44800007B
S113338010B58B009B1834339B00C31800245C6079
S113339040185930FF30034B9A5C03789343037011
S11333A0002010BDE448000070B50F230B40C41882
S11333B06134FF3425782F4EB65C35432570002ADE
S11333C029D1002B12D103250A24FF340668355570
S11333D0032A09D149B2002944DB02685B01D318EE
S11333E00A33FF3320221A70002070BD4CB2002C27
S11333F008DB5C010568AC4664440A34FF340125EB
S11334002570E5E75C010568AC4664440A34FF3482
S113341002252570DCE7012A1AD1002B05D10268A8
S11334200C210A23FF33D154DEE749B2002907DB1C
S113343002685B01D3180A33FF3304221A70D3E7FE
S113344002685B01D3180A33FF3308221A70CBE7F2
S1133450022ABDD102685B01D3180A33FF3310225C
S11334601A70C1E702685B01D3180A33FF334022A4
S11334701A70B9E7E448000070B50F230B40C41874
S11334806134FF342F4DAE5C2578B5432570002A96
S113349029D1002B12D103258424640006683555F4
S11334A0032A09D149B2002944DB02685B01D3181D
S11334B00933FF3320221A70002070BD4CB2002C57
S11334C008DB5C010568AC4664440934FF3401251B
S11334D02570E5E75C010568AC4664440934FF34B3
S11334E002252570DCE7012A1AD1002B05D10268D8
S11334F00C210933FF33D154DEE749B2002907DB3D
S113350002685B01D3180933FF3304221A70D3E72E
S113351002685B01D3180933FF3308221A70CBE722
S1133520022ABDD102685B01D3180933FF3310228C
S11335301A70C1E702685B01D3180933FF334022D4
S11335401A70B9E7E44800000023037043708370E5
S11335500133C37070470000F0B50C780F2323408B
S113356064B2CA78042A70D89200894DAA58974642
S1133570026808335B0100219954002282E05C0157
S113358002689446644480225200A55CE43A6D07C4
S113359078D1E432A65C7025E43A2E4272D15F3DC4
S11335A0E432A5541A00083252010468A4182F35D5
S11335B0657100688218802010718A78002A1FD0F3
S11335C05801744A12185468802000060443546059
S11335D054692043506107254C785A016D4B9B1860
S11335E058682C4024076C4E30402043586049787A
S11335F05A692940090732400A435A61002241E0CE
S11336005801644A121850684000400850605069DC
S1133610400040085061DEE7002C35DB5D010268A4
S11336209446654480225200AE5CE43A760729D180
S113363080267600AA5D02273A43AA55026818003C
S113364008304001121840205071E20F4F785D009D
S1133650AD182D014F4E7519686807243C402407A6
S11336604D4E3040204368608978002900D088E0BE
S11336705B009B181B01474AD3185A685200520832
S11336805A6000221000F0BD5D0102689446654452
S113369080225200AF5C7026E43A3742F2D1903671
S11336A0AA5D20273A43AA55026818000830400151
S11336B0121880201071C8E7002C17DB5D01026826
S11336C09446654480225200AE5CE43A7607D9D130
S11336D080267600AA5D03273A43AA55026818009B
S11336E008304001121840205071AEE75D010268B5
S11336F09446654480225200AF5C7026E43A374217
S1133700C0D19036AA5D30273A43AA550268180002
S11337100830400112188020107196E7002C17DB46
S11337205D0102689446654480225200AE5CE43A2E
S11337307607A7D180267600AA5D04273A43AA55C6
S113374002681800083040011218402050717CE7CC
S11337505D0102689446654480225200AF5C702685
S1133760E43A374200D08DE79036AA5D40273A43C9
S1133770AA55026818000830400112188020107100
S113378063E7696880231B060B436B60002279E7BB
S1133790C048000088050020FFFFFF8F0F230B4067
S11337A049B200290ADB08335B010268D2184021C0
S11337B051710268D3180122DA71704708335B0132
S11337C00268D218802111710268D3180222DA71BA
S11337D0F3E70F230B4049B2002907DB02680833E3
S11337E05B01D3189879C006C00F7047026808338C
S11337F05B01D31898798006C00FF6E70F230B40BE
S113380049B2002906DB026808335B01D318102291
S11338105A717047026808335B01D31820225A7129
S1133820F7E730B50F230B4049B200291DDB5901DE
S11338300268521883246400145DE40614D510252C
S1133840822464001555026852180821FF31515C26
S1133850890609D5E43C0821FF3154540268083331
S11338605B01D31801221A7130BD59010268521844
S113387083246400145DA406F6D520258224640004
S11338801555026852180821FF31515C4906EBD5E1
S1133890C43C0821FF315454026808335B01D31837
S11338A002221A71E0E7000030B50C00083464010C
S11338B00568645D6406640F1C25002C01D1280092
S11338C030BD4C010B4D2D192C002A616A690A4D3B
S11338D02A40626162699B049B0C920B920313431E
S11338E06361036808314901591880234B7100252D
S11338F0E5E7C04688050020FF3F00F030B50C0026
S1133900083464010568645D64071C25002C01D13A
S1133910280030BD0B4C4D012A51621954689B0498
S11339201B09094D2C402343536053689B0B9B0395
S11339305360036808314901591840230B7100256D
S1133940E6E7C04688050020FF3F00F0094B1960F8
S11339505A6809491140802292020A435A605A68FF
S1133960920B92035A600268402182235B00D15477
S11339700020704788050020FF3F00F0026813789C
S113398002210B43137002689378022BFCD070471A
S1133990F0B5DE4657464E464546E0B583B0C44BC7
S11339A01F683D682B78DB0914D12E8CB6B2002E2B
S11339B000D02DE2AE8BB6B2AB235B00FB5AAA2239
S11339C05200BD5A1D4035400024BA4FB84B9946A9
S11339D0984608E22B8C9BB2002B00D13DE1288C49
S11339E080B2B54B984704001F2800D935E1030085
S11339F008335B01ED18ED79EDB2AB0741D0AF4A66
S1133A0001238340116899431160030008335B016B
S1133A103A68944663440322DA713B18AE331B7848
S1133A20DB072ED5A64B18703A68030008335B01F8
S1133A309B5C9B079B0F012B00D194E04201A14B9F
S1133A409B185A681201920C90B29D494A805A6898
S1133A509204920C8A805A689B490A405A60002852
S1133A6007D16201974B9B185B689B049B0C944A9B
S1133A7053808F4B1868A31C1B01C3185B689049C3
S1133A8098476B071FD58A4B1868026823000833D0
S1133A905B019B5C9B065B0F022B75D023000833F4
S1133AA05B019B5C9B065B0F032B00D19EE06201D4
S1133AB0844B9B1800229A72036822000832520138
S1133AC09B180422DA712B0715D57C4A0123A340E5
S1133AD0116899431160764B1868230008335B0121
S1133AE00268944663440822DA710319AE331B78E2
S1133AF09B0700D594E0EB0615D5704A0123A3403B
S1133B001168994311606A4B1868230008335B01FC
S1133B100268944663441022DA710319AE331B78A9
S1133B205B0700D58AE0AB0600D42FE1634A01238A
S1133B30A3401168994311605D4B18682300083352
S1133B405B010268944663442022DA710319AE33A0
S1133B501B781B0700D419E159490C70240104197E
S1133B60236B984712E14201564B9B185A68920402
S1133B70920C53494A805A681201920C8A805A68FE
S1133B80920B92035A6074E7230008335B019B5C39
S1133B909B079B0F012B81D161014A4B5B180833B2
S1133BA09B78DB0700D479E7444A0123A3401168DA
S1133BB0994311606201434B9B1800229A722300BF
S1133BC008335B010268944663440422DA710319E2
S1133BD0AE331B789B0700D475E739490C7010236A
S1133BE04B702301C3189B6A98476CE72300083382
S1133BF05B019B5C9B079B0F012B00D057E7620185
S1133C00304B9B1800229A72230008335B01026830
S1133C10D2180421D1710268D31810225A7152E7C4
S1133C2027490C706201274B9B18DB891F22134024
S1133C304B702301C3189B6A98475CE720490C70BA
S1133C406201204B9B185B681B019B0C4B8023017A
S1133C50C318DB6A0021984765E7AC8BA4B26307FD
S1133C6038D50423AB83154B1D680123012010268E
S1133C7002E00133082B29D002009A401542F8D003
S1133C8039681A0008325201525C9206520F032A14
S1133C90EFD11A0008325201525C9207920F012AA6
S1133CA0E7D11A000832520189180E71E1E7C046C3
S1133CB088010020D44800004D46000098010020EF
S1133CC09C01002088050020FF3F00F09D33FB5C31
S1133CD0DB0762D423070BD50022AF4B1A60AF4B2E
S1133CE018680823026893839D33C35C9B0758D4E8
S1133CF0630608D5A94B186840230268938365338B
S1133D00C35CDB0650D4A30608D5A44B1868202353
S1133D10026893838533C35C1B0748D4E30608D544
S1133D209E4B18681023026893839533C35C5B072A
S1133D3040D423060BD50022974B1A60974B186882
S1133D408023026893832533C35C9B0635D4E30543
S1133D500CD50022904B1A60904B186880235B00AE
S1133D60026893835B3BC35C5B0629D4A3050DD532
S1133D700022894B1A60894B186880239B000268D3
S1133D8093835C3BFF3BC35C7F2B1CD803B03CBCE0
S1133D9090469946A246AB46F0BD7B6838009847EA
S1133DA098E783689847A3E743699847ABE70369B3
S1133DB09847B3E7C3689847BBE783699847C6E762
S1133DC0C3699847D2E7036A9847DFE723002E3395
S1133DD09B00424612689B587149424610689847B6
S1133DE00134072CD2D06300DB5B334203D04A4654
S1133DF01268126893832B42F2D0062CE6D1694BE9
S1133E001B891B09802252001340654A1360DDE7B9
S1133E103C005934FF340023012294465F3291461A
S1133E20503A92460D3A9346B8462F00C3E02A0012
S1133E303D00474690465B01ED180823FF33EB5CD9
S1133E405B0615D540220823FF33EA54883BFF3B29
S1133E5042461343544A937160230B4296D0019B0C
S1133E601B01FB18E0331B684F49380098478DE766
S1133E700823FF33EB5C9B06EED520220823FF3397
S1133E80EA54494B42469A71E6E73D004746019A97
S1133E90130008335B01ED181023EB71BB18613379
S1133EA0FF331B78DB0600D470E7100052013D4B52
S1133EB09B185B689B049B0C3B490B800301FB181C
S1133EC0DC331B684046984760E72A003D004746BC
S1133ED090465B01ED180823FF33EB5C9B071ED56E
S1133EE002220823FF33EA542F48883BFF3B424613
S1133EF013438371019B5A012A4B9B1810335B684F
S1133F009B049B0C43808B0700D13FE7019B0D333F
S1133F101B01FB185B6824493800984736E70823DF
S1133F20FF33EB5CDB07EED501220823FF33EA54B1
S1133F301D4843468371019B5B011A4AD21853689A
S1133F409B049B0C038053681B019B0C8380DAE762
S1133F500822FF329A5C520779D504200822FF32E6
S1133F609854019842010F4B9B189B7A9B0705D5E7
S1133F700C4B9B189A7A022082439A720A4B42464F
S1133F809A71019B08335B013A6894466344DB7978
S1133F90DB075CD5FAE6C0469801002088010020C2
S1133FA08C01002088050020900100200133013499
S1133FB0082B00D1EAE6DDB2019332001A416146D2
S1133FC01142F3D01A0008325201BA18D279D2B28F
S1133FD0217A1140207801404846104200D026E75B
S1133FE05046104200D050E75846104200D06CE7CB
S1133FF00C201042DAD02A003D00474690465B016F
S1134000EB180822FF329A5C1207A1D50438082263
S1134010FF32985401984201134B9B189B7E9B07D7
S113402005D5114B9B189A7E022082439A768023F1
S11340305B42424613430D4A9371019B08335B0173
S11340403A6894466344DB799B0700D59EE60C23CB
S11340500B4200D19AE6019B1B01FB18D8331B6865
S113406002493800984791E6880500209001002015
S1134070002303700133437003228270C3707047BE
S1134080F0B5CE46474680B583B004000D00160057
S11340900023674A1360674A10602160664882699A
S11340A001210A43826101AF7B70B970FB70063352
S11340B099463B7039001820604B984698474B4608
S11340C03B7039001920C047B3786A4613706946BB
S11340D004205B4B984704205A4B98472B780122C5
S11340E013432B70AB78DB07FCD4574B1B689B0343
S11340F0DB0E1F2B00D18FE02A8D9B0153490A4010
S113410013432B85504B1B685B02DB0E1F2B00D126
S113411084E02A8D1F218A4313432B854A4B1B6855
S11341209B015B0F072B00D17AE02A8D1B034849C2
S11341300A4013432B8532782978D2017F230B4020
S113414013432B7071782B7801220A4092000421CA
S11341508B4313432B703F4B6B62F378012B61D07D
S1134160002B06D1226813890C218B4304210B43B5
S113417013818022520000213648374B9847231D73
S113418021002431002204C38B42FCD12100A4313C
S113419000221A605A609A60DA6010338B42F8D1B8
S11341A00023A422A3540132A3542300A6332100E4
S11341B0AE3100221A701A7201339942FAD12300E7
S11341C0B8332100D431002204C38B42FCD1210036
S11341D05531FF3100221A605A609A60DA60103358
S11341E08B42F8D10023AA225200A3520232A352D6
S11341F023005933FF336134FF3400221A701A72DA
S11342000133A342FAD14022144B1A60002003B0B8
S11342100CBC90469946F0BD1A3B6DE7023B78E72B
S1134220043B82E72268138908318B431381A0E79A
S1134230980100208801002000040040E9250000C6
S1134240ED2400007D2400001C6080003FF8FFFF87
S1134250FF8FFFFF88050020E746000000E100E033
S1134260FEE7000010B51A4A1A4B9A4211D01A0000
S1134270194B9A420DD2194A03339B1A9B080133F6
S11342809B000022134812498C58845004329A42ED
S1134290FAD1134A134B9A420AD2D34311495B18F9
S11342A003218B4304339B18002102C29342FCD1A7
S11342B00D4AFF210D4B8B4393600D4A53687F39A0
S11342C00B4353600B4B98470B4B9847FEE7C04694
S11342D00849000000000020DC0000200400002049
S11342E0DC0000208806002000ED00E00000000053
S11342F0004000418D460000FD42000010B501223F
S1134300094B1A70BFF35F8F62B6084B9847084B8E
S11343109847084B9847084B9847084B9847084BD1
S11343209847084CA047FDE7D8000020191E00005C
S11343301D260000E111000089110000ED010000BC
S1134340211800002D02000010B5014B984710BD44
S1134350C10E000010B5014B984710BDD10E0000EE
S1134360002243088B4274D303098B425FD3030AB0
S11343708B4244D3030B8B4228D3030C8B420DD3C3
S1134380FF22090212BA030C8B4202D31212090251
S113439065D0030B8B4219D300E0090AC30B8B428F
S11343A001D3CB03C01A5241830B8B4201D38B033D
S11343B0C01A5241430B8B4201D34B03C01A5241E2
S11343C0030B8B4201D30B03C01A5241C30A8B4225
S11343D001D3CB02C01A5241830A8B4201D38B0210
S11343E0C01A5241430A8B4201D34B02C01A5241B4
S11343F0030A8B4201D30B02C01A5241CDD2C30926
S11344008B4201D3CB01C01A524183098B4201D3A1
S11344108B01C01A524143098B4201D34B01C01A8C
S1134420524103098B4201D30B01C01A5241C30804
S11344308B4201D3CB00C01A524183088B4201D373
S11344408B00C01A524143088B4201D34B00C01A5F
S11344505241411A00D20146524110467047FFE7CB
S113446001B5002000F0F0F802BDC0460029F7D0E5
S113447076E7704703460B437FD4002243088B4200
S113448074D303098B425FD3030A8B4244D3030BD7
S11344908B4228D3030C8B420DD3FF22090212BA9C
S11344A0030C8B4202D31212090265D0030B8B4218
S11344B019D300E0090AC30B8B4201D3CB03C01A02
S11344C05241830B8B4201D38B03C01A5241430BDD
S11344D08B4201D34B03C01A5241030B8B4201D3CD
S11344E00B03C01A5241C30A8B4201D3CB02C01A38
S11344F05241830A8B4201D38B02C01A5241430AB0
S11345008B4201D34B02C01A5241030A8B4201D39E
S11345100B02C01A5241CDD2C3098B4201D3CB0145
S1134520C01A524183098B4201D38B01C01A5241F4
S113453043098B4201D34B01C01A524103098B42F8
S113454001D30B01C01A5241C3088B4201D3CB00E3
S1134550C01A524183088B4201D38B00C01A5241C6
S113456043088B4201D34B00C01A5241411A00D276
S113457001465241104670475DE0CA0F00D04942DF
S1134580031000D34042534000229C4603098B424F
S11345902DD3030A8B4212D3FC22890112BA030AD7
S11345A08B420CD3890192118B4208D38901921159
S11345B08B4204D389013AD0921100E08909C309DE
S11345C08B4201D3CB01C01A524183098B4201D3E0
S11345D08B01C01A524143098B4201D34B01C01ACB
S11345E0524103098B4201D30B01C01A5241C30843
S11345F08B4201D3CB00C01A524183088B4201D3B2
S11346008B00C01A5241D9D243088B4201D34B00CC
S1134610C01A5241411A00D20146634652415B100E
S1134620104601D34042002B00D5494270476346EF
S11346305B1000D3404201B5002000F005F802BD34
S11346400029F8D016E770477047C0464142084039
S11346501C2101231B04984201D3000C10391B0AAE
S1134660984201D3000A08391B09984201D3000972
S1134670043902A2105C401A7047C0461B1C1D1D61
S11346801E1E1E1E1F1F1F1F1F1F1F1F70B500266B
S11346900C4D0D4C641BA410A64209D1002600F059
S11346A023F90A4D0A4C641BA410A64205D170BD1F
S11346B0B300EB5898470136EEE7B300EB58984740
S11346C00136F2E7F4480000F4480000F448000022
S11346D0F8480000002310B59A4200D110BDCC5C0C
S11346E0C4540133F8E703008218934200D17047A1
S11346F019700133F9E70000090000000000000010
S113470000000000000000000100000000000000A4
S11347100200000000000000030000000000000090
S1134720040000000000000005000000000000007C
S11347300600000000000000070000000000000068
S1134740080000000000000001000000020000005A
S11347500500000003000000030000000500000045
S11347600300000003000000080000000300000034
S1134770000000000200000003000000020000002E
S1134780090000000300000007000000050000000D
S11347900300000001000000090000000400000004
S11347A004000000020000000500000002000000F8
S11347B006000000020000000800000001000000E4
S11347C007000000020000000800000002000000D2
S11347D009000000020000000600000005000000BF
S11347E007000000030000000600000003000000B2
S11347F009000000010000000A00000001000000A0
S1134800010000000100000001000000050000009C
S11348100400000001000000080000000500000082
S11348200200000002000000050000000500000076
S1134830050000000100000000000000010000006D
S1134840070000000100000009000000050000004E
S1134850040000000300000002000000010000004A
S1134860020000000300000001000000030000003B
S113487006000000010000009E1E00009A1E0000B9
S11348809A1E0000041F0000041F0000B41E000054
S1134890A41E0000BA1E0000F21E000074200000D6
S11348A05420000054200000002100006620000075
S11348B0822000005820000090200000E420000026
S11348C0703500007E35000018360000B836000050
S11348D01C37000004000800700080000100000183
S11348E000020000030C1060F8B5C046F8BC08BC18
S11348F09E467047DD000000F8B5C046F8BC08BC11
S10B49009E467047B50000005B
S1134908401F00000800000091120000D1120000AE
S1134918DD1200004D120000000000000501090628
S1134928A101050719E029E7150025017501950876
S11349388102810119002965150025657508950608
S1134948810005081901290515002501750195053A
S1134958910295039101C00090000020640000209A
S1134968000000006C000020A400002009022200BE
S1134978010100803209040000010300010009213B
S113498811010001223B0007058103080002000011
S11349981201000200000008EB03012400010102D7
S11349A800010000080000200003000000000000CF
S11349B800000000000000000000000000000000EB
S11349C80403090448334E47355400004A48204B31
S10F49D86579626F6172640001000000E8
S903426555
