S0180000476363426F61726450726F6A656374312E737265630F
S1130000600E0020453700004137000041370000F2
S113001000000000000000000000000000000000DC
S11300200000000000000000000000004137000054
S113003000000000000000004137000075060000C9
S1130040413700004137000041370000E111000052
S11300504137000041370000712E00004137000095
S113006041370000413700004137000041370000AC
S1130070413700004137000041370000413700009C
S1130080413700004137000041370000413700008C
S1130090413700004137000041370000413700007C
S11300A0413700004137000041370000413700006C
S11300B00000000010B5064C2378002B07D1054B37
S11300C0002B02D0044800E000BF0123237010BDC0
S11300D0E00000200000000068400000084B10B55C
S11300E0002B03D00749084800E000BF0748036815
S11300F0002B00D110BD064B002BFBD09847F9E72D
S113010000000000E4000020684000006840000097
S11301100000000070B50D00074B1C78E4B2002C01
S113012003D0002903D1054B9847200070BD044B30
S113013098472C00F9E7C04600010020F9080000A8
S1130140B909000070B50D00074B1C78E4B2002C0F
S113015003D0002903D1054B9847200070BD044B00
S113016098472C00F9E7C046000100205108000020
S1130170A5080000F0B583B0144B984701AC0027E4
S1130180277001266670A77021000620104DA8472D
S113019021000420A84721000520A847210027208A
S11301A0A84721002220A84721002820A847210091
S11301B02320A8476670A770267021002120A84735
S11301C00222044B9A6103B0F0BDC04661040000F2
S11301D0D512000080280040F0B5DE4657464E4652
S11301E04546E0B585B06B4B1B6A08221A401300E4
S11301F0591E8B41DBB268490978994206D0002A1E
S113020077D00221634A9161634A1370634B984724
S1130210634B1B6A9B090122534001241C40614B20
S11302201B78A34205D0210039205F4B98475D4BD2
S11302301C705B4B1B6A1B090122534001241C40A8
S11302405A4B1B78A34205D021000120584B9847F4
S1130250564B1C70524B1B6A5B090122534001240C
S11302601C40544B1B78A34205D021000220504B64
S11302709847504B1C70474B1B6ADB0901225340C3
S113028001241C404C4B1B78A34205D02100402084
S1130290474B9847484B1C703E4B1B6A9B080122F6
S11302A0534001241C40454B1B78A34205D0210038
S11302B040203F4B9847414B1C70364B1B6A1B0A2E
S11302C00122534001241C403D4B1B78A34205D01E
S11302D021000820364B9847394B1C70394B039347
S11302E000239946374B9A46374B9B46374B9846E3
S11302F045E00221274A516186E7F0B202992A4B70
S113030098473A68796893009B18304A9446634446
S11303106A46127A5A540135C034052D26D0270076
S1130320A668002EF7DB6B005B199B004B441B0196
S11303300122009252469858534459689A68DB68DF
S1130340D84701000290226893009B1843446268D6
S11303509B5C8342DFD00F4B1B6A1B07CDD4E06844
S11303600028CADDC0B2104B9847CAE701239C4657
S1130370E144039B103303934B460C2B02D0039CA4
S11303800025CCE705B03CBC90469946A246AB4656
S1130390F0BDC04680280040000000206505000034
S11303A000280040FE00002015010000FF0000208E
S11303B04501000001010020FD000020FC00002098
S11303C002010020183C000031060000AC010020AE
S11303D00122024B1A7001207047C0460001002020
S11303E00022014B1A70704700010020F0B5C309C8
S11303F00024002B04D14409E401164B9C466444B8
S11304001F23184001252B00834018006361114EFF
S1130410326A114F8B005918520B6A4001231A405B
S1130420CA55326A7918120B6A401A404A70326A05
S1130430920B6A401A408A70326AD20B6A401A40A0
S1130440CA70064A126A920955402B400B71A0618A
S1130450F0BDC0460028004014030020802800405E
S113046070B582B001AC0023237001266670A370BE
S113047021000D20364DA84721000C20A84721005B
S11304800E20A84721000F20A84721002620A847B6
S1130490267021000720A84721000820A847210032
S11304A00920A84721000A20A84721000B20A847BB
S11304B021002A20A84721001320A847210030202A
S11304C0A84721003120A84721001420A847210073
S11304D01520A84721001620A8471E4B80229A61A8
S11304E08021490099610131FF3199618021C9005E
S11304F099618020000198619C4662449161802149
S113050009039961802149029161802189029161E5
S1130510802252039A61802292039A618022D2033C
S11305209A610D4D0D4C0E482E00F036002204E069
S1130530143505340530B54208D029000023E254AF
S1130540C25404C10133052BF9D1F1E702B070BDE7
S1130550D512000000280040E80100201403002008
S1130560D8020020F8B5DE4657464E464546E0B56B
S113057000210720284CA04701210820A047022180
S11305800920A04703210A20A04704210B20A047EB
S113059005212A20A04706211320A0470721302047
S11305A0A04708213120A04709211420A0470A218F
S11305B01520A0470B211620A047184B9846184E2B
S11305C0184B9A46184B99469B461BE00134043558
S11305D0052C0DD0C84723382B689842F6D34346E0
S11305E01B5D325D9A42F1D03355D8472860EDE760
S11305F005239C46E04405360F339C46E2440B4BEE
S11306009E4202D055460024E4E73CBC90469946FD
S1130610A246AB46F8BDC046ED030000140300201B
S1130620D8020020E8010020D106000014030020B5
S113063010B584B00400009001910292039306ABBC
S1130640197800200B2C09D8019A042A06D800290D
S113065006D1A1000919054B5B18985C04B010BDC4
S1130660A1000919024B5B18985CF7E714030020FA
S1130670D8020020024A1368013313607047C04651
S11306800401002010B500200C4B9847FA21890082
S11306900B4B984701380B4B98420ED80A4A5060CE
S11306A00A48036A1B021B0AC02109060B430362A2
S11306B0002393600733136010BDFEE7F1180000B8
S11306C081380000FFFFFF0010E000E000ED00E0D3
S11306D0014B18687047C0460401002070B5002023
S11306E0084B98470500084CFA218900A047074B9E
S11306F0186007492800A047064B18600522064BDE
S11307001A6070BDF1180000813800000400002058
S113071040420F000800002010E000E00020704775
S11307200B4B5B881A0A0020022A00D07047FD3266
S11307301A42FBD1064BDB88012BF7D1044B054A47
S11307409A60054A1A6101229A810130EEE7C04697
S1130750400500201C010020CD07000010B5002436
S1130760074B1C70074B1C70074B1C7008220021A0
S11307700648074B9847074B1C70074B984710BD1A
S1130780100100200C0100200801002014010020A9
S1130790073C0000090100204D38000010B5014B52
S11307A0984710BD5938000010B5034B034A04495B
S11307B00448054CA04710BD21070000200000207C
S11307C00C010020100100205D0A000010B5024B4E
S11307D01878024B984710BD1C01002065380000B2
S11307E010B582B00B4B1B780020002B01D002B057
S11307F010BD094A094B110011CB11C10021084B4E
S11308001970084B009308238120074CA047014A24
S11308101070ECE7080100202001002014010020E2
S1130820090100202D080000B124000010B50022A9
S1130830044B1A70044B1B78002B00D110BD034BE2
S11308409847FBE70801002009010020E1070000A8
S113085010B582B0EFF310835A425341019372B63C
S1130860BFF35F8F00220B4B1A70019C0A4A137866
S1130870834313700122094B1A70094B9847002CCB
S113088005D00122034B1A70BFF35F8F62B60120BB
S113089002B010BDDC00002014010020090100207A
S11308A0E107000010B582B0EFF310835A425341C0
S11308B0019372B6BFF35F8F00220B4B1A70019C39
S11308C00A4B1A78104318700122094B1A70094B0D
S11308D09847002C05D00122034B1A70BFF35F8F99
S11308E062B6012002B010BDDC000020140100201B
S11308F009010020E107000030B583B0EFF3108355
S11309005A425341019372B6BFF35F8F0022264BC4
S11309101A70019C254B9B78002B16D0984241D02D
S1130920224B0332D97800290FD0814216D00132EC
S1130930D2B20133082AF5D1002C30D001221A4B4F
S11309401A70BFF35F8F62B629E0002C27D0012212
S1130950154B1A70BFF35F8F62B620E0082AEBD004
S1130960062A0CD811498B18551C0620821AD2B2BB
S1130970AA188A185978197001339342FAD10022BF
S11309800A4BDA7101320A4B1A700A4B9847002C51
S113099005D00122044B1A70BFF35F8F62B60120A9
S11309A003B030BD0222DDE7DC000020140100208A
S11309B009010020E107000010B582B0EFF31083B5
S11309C05A425341019372B6BFF35F8F00221F4B0B
S11309D01A70019C1E4B9B78002B35D0984215D081
S11309E01B4A0323D17800291AD081420ED0013347
S11309F0DBB20132082BF5D10020002C22D00122D9
S1130A00124B1A70BFF35F8F62B61BE00120002CFB
S1130A1018D001220D4B1A70BFF35F8F62B611E03C
S1130A20082BE9D00A4AD05401220A4B1A700A4B07
S1130A3098470120002C05D00122044B1A70BFF303
S1130A405F8F62B602B010BD0223EBE7DC0000202A
S1130A501401002009010020E107000070B5050021
S1130A6014003B4A127850B2002805DB602422406F
S1130A700020202A4FD070BD6020024003D13448AA
S1130A80407806280DD00020202AF4D1304A52782C
S1130A90022A34D0032A38D00020012AEBD1984707
S1130AA0E9E72C4B98470300827A0020212AE2D1FF
S1130AB0274A5288120A212A13D0D97B0020914256
S1130AC0D9D1234A9460197C09331B7A1B020B4346
S1130AD0D088191C9BB2834200D9011C918101204A
S1130AE0C9E71B4A1900093191605B7AD088191C47
S1130AF09BB2834200D9011C91810120BBE7144BB6
S1130B009D6001229A810120B5E7114B9960012271
S1130B109A810120AFE70E4A52780A2A06D00B2A9E
S1130B200AD00020092AA6D19847A4E7084B5B887D
S1130B301B0A2B7001209EE7054BDB880020002B4D
S1130B4000D098E7024B5B880B70013093E7C046F6
S1130B5040050020F50C000010B5114B1B681A6805
S1130B609478D3781B022343D2180378C018904298
S1130B7010D24378042B0FD08B420AD00378C018CC
S1130B80904205D24378042B08D08B42F6D100E082
S1130B90002010BD0020FCE70020FAE70020F8E761
S1130BA03401002010B5034B5B887F201840024BB2
S1130BB0984710BD400500208926000070B5194BE8
S1130BC01B780022002B29D0174B1B681B681C794B
S1130BD0844223D9154A13609A78DC78240214439A
S1130BE01C19A3421CD20025012607E00F4A1360FA
S1130BF00FE01A789B183500A3420CD25A78042AC5
S1130C00F7D19A788242F4D1DA788A42F1D1002D70
S1130C10ECD1012202E0054A13600022100070BDED
S1130C200022FBE7300100203401002038010020BD
S1130C30F0B5C64600B504000021134B9847051EC5
S1130C4003D1280004BC9046F0BD104B1B685B68C0
S1130C50A200D3589846DB689847010020000A4B4D
S1130C609847051EEDD00A4B1C680A4E0A4F052111
S1130C702000B047041E02D08078B847F7E7434607
S1130C805B689847DDE7C046BD0B000034010020D7
S1130C9038010020590B0000C9210000F8B50500F7
S1130CA00F4B9847002819D00E4B1C680E4E0F4F5F
S1130CB005212000B047041E09D0037942791202AD
S1130CC01A43C1788078B8470028F1D106E0084B70
S1130CD01B685B68AD00EB581B689847F8BDC046BD
S1130CE0BD0B000038010020590B00002122000038
S1130CF034010020014B18687047C04638010020B9
S1130D0010B5014B984710BD3927000070B50E4B44
S1130D101B78002B11D00D4B1B681B681B79002B13
S1130D200BD000240A4E094D2000B0470134E4B230
S1130D302B681B681B79A342F6D80023024A137060
S1130D40044A138070BDC0463001002034010020E5
S1130D50310C00002801002070B50E4B1B78002BCD
S1130D6017D00D4B1B681A681279002A11D0002481
S1130D70094D06E00134E4B22B681A681279A242E4
S1130D8007D95B68A200D3581B69002BF2D098479F
S1130D90F0E770BD3001002034010020F8B5AB4B02
S1130DA000229A811A615A611B785AB2002A13DB15
S1130DB060221A4200D1D7E0A44B1A781F231340B3
S1130DC0012B00D174E1A14B1A781F23134000209A
S1130DD0022B00D1CAE1F8BD9C4AD2880020002A27
S1130DE0F9D060211942E7D11F210B4008D197495E
S1130DF04978062923D0082900D184E0002917D096
S1130E00012B00D187E0022BD6D1904B5B780020D8
S1130E10002B00D0A6E1022AD5D18C4B18798C4B3B
S1130E2098478C4B1880022118008B4B9847FCE0A4
S1130E30022AC8D102318948874B9847F5E0834B91
S1130E405A88130A022B23D0D9B202290FD9032BB3
S1130E5034D00F2B00D082E1814B98680028B2D0A7
S1130E608378C178090219437B4B984707E0012B2B
S1130E7000D074E17A4B18680178774B9847734B2C
S1130E80DA889B89934200D8CFE0704B9A81CCE0FA
S1130E90D2B2734B1B685B7C934200D893E7704BD0
S1130EA05B68D200D0588378C178090219436A4B31
S1130EB09847664B9B6802225A70E0E7FF231A406A
S1130EC0012A1DD0002A16D0022A00D074E7654CEE
S1130ED00B21654A02320023E05C108001330232A8
S1130EE0D8B28842F8D3490002315F48017089B210
S1130EF0594B9847C3E704215C48574B9847BEE7D2
S1130F005B4C0621E5E7012A00D05CE70121594842
S1130F10514B984789E04D4949780A2900D072E736
S1130F20012A00D0C4E0534B1B78002B00D1BFE052
S1130F30464B1C79504B1D682B681B79A34200D883
S1130F40B6E0002120004D4B9847002800D133E73C
S1130F506B68A400E358DB689847494B187001217B
S1130F6018003D4B984760E01F2213405FD1374A79
S1130F705278032A00D1F4E0D1B203293BD9052ADF
S1130F804BD0092A53D1314BDB88002B00D01AE710
S1130F903C4B9847002800D10EE72C4B9A78304BF5
S1130FA01B685B7C9A4200DD06E7374B9847274B6A
S1130FB09B78304A1370002B37D0344A94466344EC
S1130FC0DB00274A5268D3182B4A13601B681B792D
S1130FD0002B2AD000242E4D160000212000A84703
S1130FE0002800D1E8E60134E4B233681B681B79B9
S1130FF0A342F2D819E0012A19D1144BDB88002B43
S113100000D0E0E6114B5B88012B00D0DBE6134AED
S1131010138802218B43138007E00C4BDB88002BE1
S113102000D0D0E61B4A094B1A610120D3E6012BFC
S113103032D0022B00D0BFE6044B5B78012B6DD07D
S1131040032B00D179E000208CE0C046400500204D
S1131050292300002A010020A926000028010020DD
S11310605C000020D0000020AC000020C400002060
S1131070C80000203001002034010020BD0B000016
S11310802C010020992600000D0D0000FFFFFF1F1A
S11310909D0C0000A50B0000484A52780B2AC8D1C9
S11310A0464BDB88002B03D1454B1B78002B27D103
S11310B0434B1B780020002B00D18CE63F4B1C795E
S11310C0404B1D682B681B79A34200D883E600219E
S11310D020003D4B9847002800D174E66B68A200BD
S11310E0D558EB68984701002000374B98470028F3
S11310F000D168E6AB689847002800D06BE662E64A
S11311002E4B1D795C882800304B9847002800D16D
S113111052E6E1B228002E4B984723E0274BDB88A8
S1131120002B00D04FE6254B5B88002B00D04AE60D
S1131130224B1879274B984714E0204BDB88002B6F
S113114000D040E61D4B5B88002B00D03BE61B4CD7
S11311502079214B98472079204B984702E00020C2
S113116000E00020002800D035E625E6144B1B786B
S1131170002B00D12FE6134B1B681A681279002A42
S11311801AD00025104E0F4F5B68AA00D458E368AC
S1131190984701002800B047002800D11BE6A36847
S11311A09847002800D016E60135EDB23B681A686E
S11311B01279AA42E8D80EE600200CE64005002089
S11311C03001002034010020BD0B0000310C000070
S11311D09D0C00006D2400008D2100003D230000C3
S11311E070B50022104B1A70002310491F25104EB1
S11311F00D4C0AE00D4908E023780133DBB223707B
S11312000F2B10D800211F2BF4D9280018400122DD
S1131210824048691042EFD04A619B009B59002BE1
S1131220EAD09847E8E770BD550300200024004049
S113123058030020064A137802210B43137001203F
S113124053681942FCD153681842F9D17047C0461B
S11312500024004000B583B0174A516980239B00E5
S11312600B43536101A900230B700320134B9847D0
S11312700320134B9847134A137801210B4313702F
S11312800131012053681942FCD153681842F9D145
S11312900C4A137810218B4313700B4B1900403107
S11312A0002204C38B42FCD10822084B1A60084B6D
S11312B0984703B000BDC04600040040CD190000AB
S11312C05D190000002400405803002000E100E004
S11312D03512000000B583B001AB80221A700A7881
S11312E05A704A789A708A78DA701900014B9847D4
S11312F003B000BDC91A0000704700000C4B1B6806
S1131300002B06D1EFF31083002B07D00022094BEA
S11313101A70074A136801331360704772B6BFF33B
S11313205F8F0022044B1A700132024B1A70F0E7EF
S11313303C01002040010020DC000020084B1A681A
S1131340013A1A601B68002B09D1064B1B78002B4D
S113135005D00122044B1A70BFF35F8F62B6704749
S11313603C01002040010020DC00002010B50828CA
S113137003D880001D4B1B589F46002034E01C4BB3
S1131380186931E01B4B187D0007800F431C1A4875
S1131390584329E0164B586926E0154B1B6800207A
S11313A09B0721D5134980225200CB681342FCD0FD
S11313B00F4B1A6824231340042B01D00F4813E069
S11313C000200F4B98470A4B9B681B041B0C584387
S11313D00AE02823074AD35C00209B0704D5044B6A
S11313E0D86801E08020000210BDC046D83F00004C
S11313F044010020000C004000093D00006CDC02A8
S1131400F1190000F0B5D6464F464646C0B5204B0C
S11314109A465B69457801784C424C41A1468178F3
S11314208C46C1788846467A077A847A4068194996
S11314304861012148468000042293430343404607
S11314400840C0000432934303436046084000014F
S11314500832934303430F40BF01402083433B437F
S11314600E40F601403083433343793805402D0262
S1131470094803402B4321400903084803400B4318
S1131480524653611CBC90469946A246F0BDC046E4
S11314900010004044010020FFF8FFFFFFEFFFFFB2
S11314A010B5837A9B061B0C82899205920D134317
S11314B01A494B60037A427A13438288C4882243D0
S11314C013434278D20113438278920113430B6091
S11314D00378042B11D0202B0ED1837B9B06428AE8
S11314E01343028A12040E490A4013430B4A9360C1
S11314F011680C4B0B43136010BD837B9B06428A1F
S11315001343028A120406490A401343034A9360B0
S1131510136804210B431360EEE7C0464401002026
S11315200000FF0324040000082803D880002D4B8A
S11315301B589F46172054E02B4A137D02210B436E
S1131540137500204DE0294A936902210B439361EE
S1131550002046E0244A138A02210B431382002010
S11315603FE0224A536902210B435361002038E0D3
S11315701F490B68022213430B601B4B1A8319008B
S1131580FE32CB681342FCD0194B9A68164B1A6290
S113159002221A831900FE32CB681342FCD0144B8A
S11315A05A68114BDA6100221A8319000132FF32A2
S11315B0CB681342FCD00E4B1B689BB20A4A1383C0
S11315C000200EE0084928228B5C022003438B5440
S11315D008003821263A435C1342FCD1002000E085
S11315E000207047FC3F0000000C00400010004049
S11315F044010020F0B5C64600B58CB080225200EC
S1131600654B9A60FD3A654B9A60654A53681E21A2
S11316108B431A390B4353608023DB059B78022BE1
S11316200FD08023DB059B785BB2002B09DB802382
S1131630DB0501229A7101329A701A009379002B0A
S1131640FCD009A800230370802212024260837038
S11316500122C27083720421417043720272514BA1
S113166098470520504B984750490122CB681A42AD
S1131670FCD0494B197D802252420A431A751A7DC7
S113168040218A431A7504AB0022002199801A7202
S11316905A729A70203119705A70454B1B689B0E10
S11316A03F2B00D175E004A88372032383730733AF
S11316B00382404B8381FF3BC3803F4B43823F4BBC
S11316C098473F4B984701AC012602960025657068
S11316D0257265720523237021000120394B984639
S11316E098470120384FB8476660657065720723D4
S11316F02370267221000320C0470320B847072027
S1131700294B9847244980225200CB681342FCD0CD
S1131710214A138B80210B4313832C4C0123A37187
S11317206371237101A94B6000224A704A72073227
S11317300A700B720020234B98470020224B9847D5
S11317400020234B98472179C9B2224B9847224B5A
S1131750984202D90822A2716271204B984214D88F
S11317608023DB059B78002B0FD08023DB059B783F
S11317705BB2002B09DB8023DB0501229A71002276
S11317809A701A009379002BFCD00CB004BC9046DC
S1131790F0BD203B87E7C046000C00400014004029
S11317A0004000410514000029150000001000400D
S11317B020608000FF01000080BBFFFFA114000037
S11317C0E117000005180000B118000000040040F3
S11317D0F118000081380000808D5B00001BB70009
S11317E0064A536940210B4353610122044B1A708A
S11317F019000B781342FCD17047C0460004004026
S11318000018004070B504000D784B78002B02D00E
S11318108023DB001D434B7A002B02D080231B0165
S11318201D43486801280FD9431E184231D10228AC
S11318302DD90223002201325B009842FBD8802379
S11318405B011D43120415430B7A002B02D0802345
S11318509B011D430426A6401149124A4B681340BC
S11318601E42FBD1104B9847A4000D4B9C46644488
S1131870226A80235B001A402A4322626146094A95
S11318804B6813401E42FBD1084B984770BD0022A1
S1131890D5E7000480239B0018430543D4E7C046E2
S11318A000180040FC070000FD1200003D1300007A
S11318B010B504000422824009480A4943680B40D9
S11318C01A42FBD1084B9847A400054B9C4664443C
S11318D0226A80235B0013432362044B984710BDA4
S11318E000180040FC070000FD1200003D1300003A
S11318F0F8B50400042282401248134943680B409F
S11319001A42FBD1114B98470E4F0834A400E059FA
S11319100007000F0E4B98470600E559ED04ED0F44
S1131920E459240C0B4B9847002D07D1012C07D9FF
S113193021003000084B9847060001E00134E640DE
S11319403000F8BD00180040FC070000FD12000044
S11319506D1300003D1300008138000010B5040031
S1131960094B9847A000094B9C4660448022835849
S113197040210B4383504031403A43581A42FCD033
S1131980034B984710BDC046FD12000000180040EC
S11319903D13000010B50400094B9847A000094B03
S11319A09C4660448022835840218B4383504031BD
S11319B0403A43581A42FCD1034B984710BDC046E5
S11319C0FD120000001800403D13000070B5040033
S11319D00D00054B98472A780F2313402034A400A8
S11319E0024AA35070BDC04695190000001800407B
S11319F010B50400064B98472034A400054BE45866
S1131A002407240F044B98472000044B984710BD2B
S1131A10FD120000001800403D130000F118000002
S1131A2030B5D378002B35D11378802B29D01B0601
S1131A3080246402234354780225AC4306D194786D
S1131A40002C20D18024A402234341605478013C1B
S1131A50012C1CD90D042D0CA024E4052C431C439B
S1131A6084620D0CD02424062C431C438462D47855
S1131A70002C22D15B031CD59378012B1ED041612D
S1131A8017E00023D7E7C024E4022343DDE70D4C2D
S1131A902340DFE741600C04240CA023DB0523432F
S1131AA083620C0CD0231B0623438362D378002B60
S1131AB003D15378013B012B02D930BD8161F8E792
S1131AC08160FAE7FFFFFBFF10B50A00C10900239C
S1131AD0002904D14309DB0105498C4663441F24D2
S1131AE02040012181401800024B984710BDC04698
S1131AF000280040211A00007047000010B5054B73
S1131B009847054B9847054B9847054B9847054B15
S1131B10984710BDF5150000F9120000F91A0000ED
S1131B2055120000F91A000010B584B003AB00226E
S1131B301A7001325A709A70DA70274B1B788342FC
S1131B4007D0002807D1244B1B78002B23D1224B2C
S1131B50187004B010BD03AB1B5C204AD25CFF2A92
S1131B6000D1FEE7EFF3108251424A41019272B66E
S1131B70BFF35F8F00211A4A1170019C1749CA5C98
S1131B800132CA54002CDED00122154B1A70BFF367
S1131B905F8F62B6D7E703AAD35C104AD25C002AEF
S1131BA000D1FEE7EFF3108251424A41029272B62D
S1131BB0BFF35F8F00210A4A1170029C0749CA5C77
S1131BC0013ACA54002CC2D00122054B1A70BFF34B
S1131BD05F8F62B6BBE7C0468C0100205003002033
S1131BE0DC00002043060BD00F2303405B00C00938
S1131BF018180238830018188000024B1818704710
S1131C000020FCE764010020F0B5D6464F46464666
S1131C10C0B589468D796BB2002B26DB28005E4B5C
S1131C20984704000F272F40038A98464B461B8889
S1131C309A46837C5B076AD4E36853441E00E360DE
S1131C40A3689E4200D874E0E360A37C012293431E
S1131C50A3742368002B03D0E1682A00002098476E
S1131C601CBC90469946A246F0BD28004A4B9847B2
S1131C7004000F272F40038A98464B465E88C368AA
S1131C809C466644C66081688E4225D08D1BADB2E9
S1131C90424B9D4206D91D0041461800404B9847CF
S1131CA06D1AADB2A27C0023920707D541462800E5
S1131CB03C4B984789B24B424B41DBB25B00A27C60
S1131CC002218A431343A374626892192B003900DA
S1131CD03548364CA047C3E7837C9B070BD4837CF1
S1131CE00122934383740368002BB9D02A00310086
S1131CF000209847B4E7837C0222934383744268AC
S1131D009219002339002848284CA047A8E74368C3
S1131D10C268944663441E0041468068214B98473C
S1131D200A007B1E9B01224959183000214B984719
S1131D3082E74A469288524500D086E79E4200D107
S1131D4083E79B1B9DB2154B9D4216D91D0041464E
S1131D501800134B98476B1A9BB2984514D9A37C6F
S1131D6004221343A3747A1E9201114BD2184346E2
S1131D7039000D48104CA04772E741462800094B32
S1131D8098476B1A9BB2E8E76268921939000648D3
S1131D90094CA04764E7C046E51B0000FF1F000094
S1131DA0613B00008D390000D8030020892D00001C
S1131DB098030020F53B0000DD2D000010B505223E
S1131DC0054B1A70054C80212000054B98470021D3
S1131DD02000044B984710BD62010020D803002066
S1131DE0DD2C0000032D000070B5084C06212000F6
S1131DF0074DA84704212000A84702212000054BD5
S1131E0098470220044B984770BDC046D803002071
S1131E101D280000FD270000291B000070B5134B8E
S1131E201B8B9B061BD41149D0221201CB68134093
S1131E309342FBD10E4C022120000E4B9847042103
S1131E4020000D4DA8470D4A062120000C4B984751
S1131E5006212000A84703200A4B984770BD034978
S1131E6080225200CB681342FCD0E3E7000C004010
S1131E70D80300201D280000FD270000E91D0000F4
S1131E80D9270000291B000010B5064C04212000AE
S1131E90054B984702212000044B98470120044B2E
S1131EA0984710BDD80300201D280000FD2700001E
S1131EB0291B000070B582B004001E4B9847802394
S1131EC02268937201AD28001B4B984700266E7060
S1131ED029002000194B984719492000194B9847AD
S1131EE0194B022200212000184DA847184B00224C
S1131EF000212000A847174B012200212000A847F9
S1131F00022200212000144DA847002200212000B5
S1131F10A847012200212000A84721680B890F4A05
S1131F201A408023DB0013430B810D4B1E7002B05B
S1131F3070BDC0460D0D0000292A0000392A00009A
S1131F40580500202D2E00009D2000003928000097
S1131F506D230000A11F000089280000FFF3FFFF8C
S1131F606201002010B50322074B1A70074C084980
S1131F702000084B9847084B9A6800230021200052
S1131F80064CA04710BDC04662010020D8030020C3
S1131F90580500202D2E000040050020892D00004A
S1131FA010B589794BB2002B06DB0E4B1B78022B44
S1131FB00FD0032B11D010BD0A4B1B78012B05D079
S1131FC0042BF8D10848094B9847F4E7084B984785
S1131FD0F1E70422034B1A70EDE70348034B9847DB
S1131FE0E9E7C04662010020D8030020DD2C000090
S1131FF0651F000070B5204B1B88204A9489E41AA1
S1132000A4B2002C18D11E4A11885B189BB213800D
S11320101A4AD2889A4223D01A4B1B78002B1FD11C
S1132020164B5B69002B23D09847002820D0002250
S1132030114B1A80114B9C89072C19D90022114B82
S11320401A7008240C4D2B880C4A9268D21823006D
S113205000210D480D4EB0472B88E4182C8070BD2C
S113206004220B4B1A700B4907480B4B9847F6E7B1
S11320700122044B1A70E5E75E01002040050020B0
S1132080600100205C010020D8030020892D00009D
S113209062010020580500202D2E000010B50C0010
S11320A02C4B1B78002B07D02B4B1B69002B00D02B
S11320B098470022274B1A702388082B02D0274BFD
S11320C0984710BD244A264B1978117059785170DD
S11320D0D878000299780918518058790002197942
S11320E009189180D97909029B795B18D3801D4B1B
S11320F09847002816D0184B1B787F2B15D8164B01
S1132100DB88002B22D00023174A1380174A138040
S11321100122104B1A700823114A00211448154C4F
S1132120A047CEE70D4B9847CBE700230E4A138018
S11321300E4A13800222074B1A700823084A002112
S11321400B480C4CA0470C4B9847BAE70B4B9847ED
S1132150B7E7C0466201002040050020BD1D000015
S1132160580500209D0D0000600100205E01002044
S1132170D8030020DD2D0000F51F0000651F0000BE
S113218010B5014B984710BD590D000010B504005F
S113219001000A480A4B984720000A4B9847837C61
S11321A0DB070AD5837C0122934383740368002BE5
S11321B003D0C16822000120984710BDD803002035
S11321C07D2C0000E51B000070B582B0040001AD59
S11321D028000D4B984720000C4B98472C70002387
S11321E0EB700B4E290030000A4B98470F21214019
S11321F000223000084B9847002221003000074B92
S1132200984702B070BDC046292A00008D21000005
S1132210D8030020392A0000612800005929000051
S1132220F0B583B005000F00140001AE3000364B4A
S113223098473570082C13D8002201AB5A70280037
S1132240324B9847048203213940012938D00229AE
S113225043D0002303293DD1042201ABDA7032E0DC
S1132260102C03D8012201AB5A70E8E7202C03D8C4
S1132270022201AB5A70E2E7402C03D8032201ABDF
S11322805A70DCE7802C03D8042201AB5A70D6E7DD
S113229080235B009C4203D8052201AB5A70CEE731
S11322A080239B009C4203D8062201AB5A70C6E7E8
S11322B0174A002394420DD8072201AB5A70BEE797
S11322C0022201ABDA7001A91248134B984700238C
S11322D0002806D0180003B0F0BD032201ABDA7069
S11322E0F1E70F2129400B4C0C4B002220000C4E2F
S11322F0B0470022290020000A4EB04701222900DD
S11323002000B0470123E5E7292A0000E51B00006F
S1132310FF030000D8030020392A0000091C000034
S1132320392800008928000010B501000148024B3B
S1132330984710BDD8030020B32C000010B504004A
S11323400F2303400020012B00D910BD21000448B5
S1132350044B98472000044B98470120F5E7C046FA
S1132360D8030020DD2C00008D21000070B5344B13
S11323701B78012B0AD0022B5FD0324B1B69002B38
S113238000D0984700222E4B1A7070BD0D882D4B3B
S11323909B892D4A14886219934201DA1D1BADB240
S11323A0284B986800192A002849294B9847641932
S11323B0A4B2254B1C80082D0AD0224B9C815B695A
S11323C0002B02D09847002814D0224B9847DCE712
S11323D01C4BDA88204B1B881B199A42EDDD194BE4
S11323E09B89A3420CD00823184A00211B481C4C8B
S11323F0A047CAE70522124B1A701A4B9847C4E744
S1132400104B5B69002B0BD0984700280FD0124962
S11324100D4A0B8810881B180B8000231380E2E7F9
S11324200522074B1A7000200E4B9847ADE7052292
S1132430034B1A700B4B9847A7E70B4B9847A4E73D
S113244062010020400500205E01002058050020A4
S1132450F53B0000651F000060010020D803002048
S1132460DD2D00003D230000F51F000070B50400C1
S11324700F2303400020012B00D970BD2000094B1D
S11324809847050021000848084B9847AB7C012079
S1132490DB07F2D5AB7C01229343AB742B689847DE
S11324A00120EAE7E51B0000D8030020032D00000B
S11324B0F0B587B005000391029201930F26064000
S11324C00024012E02D9200007B0F0BD644B9847C8
S11324D0041E00D0BDE02800624B98470700EFF3CC
S11324E010835A425341059372B6BFF35F8F0022A3
S11324F05D4B1A70059B827CD20708D5002BE2D075
S11325000122594B1A70BFF35F8F62B6DBE7827CFE
S113251001210A438274002B05D00122524B1A7008
S1132520BFF35F8F62B6029B7B60019BBB6000239D
S1132530FB600C9B3B600123039A13405A00BB7C55
S113254002218B43134304229343BB746BB2002BCD
S113255020DB019B002B6FD09CB2444B9C425AD988
S1132560398A1C001800424B9847631A9AB23B8A76
S11325709A4257D2BA7C04210A43BA74721E920159
S11325803C49521831003C483C4CA0474442444129
S1132590E4B298E7019B002B27D09DB2334B9D42B8
S11325A006D9398A1D001800314B98476B1A9DB221
S11325B0BB7C9B0707D5398A2800314B984789B2E1
S11325C04C424C41E4B2012020404000BC7C022338
S11325D09C430443BC742B00029A31002648294CC6
S11325E0A04744424441E4B26DE7BB7C9B0705D558
S11325F0BB7C02229343BB740025ECE7BB7C012225
S11326009343BB740C9B002B25D02A00002100208F
S11326109847012457E7398A2000194B9847631AD1
S11326209AB2A4E71300029A31001348134CA0474E
S113263044424441E4B246E7BB7C01229343BB7469
S11326400C9B002B09D02A0000210020984701246C
S113265039E7002437E7012435E7012433E7C0468E
S113266029230000E51B0000DC000020FF1F000000
S1132670613B000098030020D8030020DD2D0000FA
S11326808D390000892D0000024B1B688022104305
S113269098727047D8030020024B1B68987A400652
S11326A0400E7047D8030020014B98609981704711
S11326B04005002070B50320164B9847164C22683D
S11326C0138901218B431381144A03312000144ED2
S11326D0B047144A00212000B047134A01212000CA
S11326E0B047124A02212000B04704212000104DB7
S11326F0A84700212000A84701212000A847022163
S11327002000A8470B4A06212000B04706212000DC
S1132710A84770BD291B0000D8030020891E0000B3
S1132720D927000081210000B51E00001D1E0000F5
S1132730FD270000E91D000070B582B0EFF310839F
S11327405A425341009372B6BFF35F8F00221A4B73
S11327501A70009C01AD2800184B98470323AB70F6
S1132760174E2A008221C9053000164B98473000C5
S1132770154B9847154B1B8B9B0615D41349D02238
S11327801201CB6813409342FBD10120104B9847B0
S1132790104B9847002C05D00122074B1A70BFF349
S11327A05F8F62B602B070BD084980225200CB68C8
S11327B01342FCD0E9E7C046DC000020513500009C
S11327C0D8030020613500005D2E0000000C00409D
S11327D0291B0000B526000010B50B002E339B000A
S11327E01A50AA2252004900835A034C095B0B4336
S11327F08352002010BDC046344000004900064BFF
S1132800CB5A02689383AB214900425A1A4342527D
S11328100268138300207047344000004900054BD0
S1132820CA5AAB214900435A9343435203689A82DC
S1132830002070473440000010B58C00A4183434D4
S1132840A4000419636040185930FF300378034929
S11328508A5C13430370002010BDC046444000004E
S113286010B58B009B1834339B00C31800245C60A4
S113287040185930FF30034B9A5C0378934303703C
S1132880002010BD4440000070B50F230B40C41855
S11328906134FF3425782F4EB65C35432570002A09
S11328A029D1002B12D103250A24FF34066835559B
S11328B0032A09D149B2002944DB02685B01D31819
S11328C00A33FF3320221A70002070BD4CB2002C52
S11328D008DB5C010568AC4664440A34FF34012516
S11328E02570E5E75C010568AC4664440A34FF34AE
S11328F002252570DCE7012A1AD1002B05D10268D4
S11329000C210A23FF33D154DEE749B2002907DB47
S113291002685B01D3180A33FF3304221A70D3E729
S113292002685B01D3180A33FF3308221A70CBE71D
S1132930022ABDD102685B01D3180A33FF33102287
S11329401A70C1E702685B01D3180A33FF334022CF
S11329501A70B9E74440000070B50F230B40C41847
S11329606134FF342F4DAE5C2578B5432570002AC1
S113297029D1002B12D1032584246400066835551F
S1132980032A09D149B2002944DB02685B01D31848
S11329900933FF3320221A70002070BD4CB2002C82
S11329A008DB5C010568AC4664440934FF34012546
S11329B02570E5E75C010568AC4664440934FF34DE
S11329C002252570DCE7012A1AD1002B05D1026803
S11329D00C210933FF33D154DEE749B2002907DB68
S11329E002685B01D3180933FF3304221A70D3E75A
S11329F002685B01D3180933FF3308221A70CBE74E
S1132A00022ABDD102685B01D3180933FF331022B7
S1132A101A70C1E702685B01D3180933FF334022FF
S1132A201A70B9E7444000000023037043708370B8
S1132A300133C37070470000F0B50C780F232340B6
S1132A4064B2CA78042A70D89200894DAA5897466D
S1132A50026808335B0100219954002282E05C0182
S1132A6002689446644480225200A55CE43A6D07EF
S1132A7078D1E432A65C7025E43A2E4272D15F3DEF
S1132A80E432A5541A00083252010468A4182F3500
S1132A90657100688218802010718A78002A1FD01E
S1132AA05801744A12185468802000060443546084
S1132AB054692043506107254C785A016D4B9B188B
S1132AC058682C4024076C4E3040204358604978A5
S1132AD05A692940090732400A435A61002241E0F9
S1132AE05801644A12185068400040085060506908
S1132AF0400040085061DEE7002C35DB5D010268D0
S1132B009446654480225200AE5CE43A760729D1AB
S1132B1080267600AA5D02273A43AA550268180067
S1132B2008304001121840205071E20F4F785D00C8
S1132B30AD182D014F4E7519686807243C402407D1
S1132B404D4E3040204368608978002900D088E0E9
S1132B505B009B181B01474AD3185A68520052085D
S1132B605A6000221000F0BD5D010268944665447D
S1132B7080225200AF5C7026E43A3742F2D190369C
S1132B80AA5D20273A43AA5502681800083040017C
S1132B90121880201071C8E7002C17DB5D01026851
S1132BA09446654480225200AE5CE43A7607D9D15B
S1132BB080267600AA5D03273A43AA5502681800C6
S1132BC008304001121840205071AEE75D010268E0
S1132BD09446654480225200AF5C7026E43A374242
S1132BE0C0D19036AA5D30273A43AA55026818002E
S1132BF00830400112188020107196E7002C17DB72
S1132C005D0102689446654480225200AE5CE43A59
S1132C107607A7D180267600AA5D04273A43AA55F1
S1132C2002681800083040011218402050717CE7F7
S1132C305D0102689446654480225200AF5C7026B0
S1132C40E43A374200D08DE79036AA5D40273A43F4
S1132C50AA5502681800083040011218802010712B
S1132C6063E7696880231B060B436B60002279E7E6
S1132C702040000060050020FFFFFF8F0F230B4062
S1132C8049B200290ADB08335B010268D2184021EB
S1132C9051710268D3180122DA71704708335B015D
S1132CA00268D218802111710268D3180222DA71E5
S1132CB0F3E70F230B4049B2002907DB026808330E
S1132CC05B01D3189879C006C00F704702680833B7
S1132CD05B01D31898798006C00FF6E70F230B40E9
S1132CE049B2002906DB026808335B01D3181022BD
S1132CF05A717047026808335B01D31820225A7155
S1132D00F7E730B50F230B4049B200291DDB590109
S1132D100268521883246400145DE40614D5102557
S1132D20822464001555026852180821FF31515C51
S1132D30890609D5E43C0821FF315454026808335C
S1132D405B01D31801221A7130BD5901026852186F
S1132D5083246400145DA406F6D52025822464002F
S1132D601555026852180821FF31515C4906EBD50C
S1132D70C43C0821FF315454026808335B01D31862
S1132D8002221A71E0E7000030B50C000834640137
S1132D900568645D6406640F1C25002C01D12800BD
S1132DA030BD4C010B4D2D192C002A616A690A4D66
S1132DB02A40626162699B049B0C920B9203134349
S1132DC06361036808314901591880234B71002558
S1132DD0E5E7C04660050020FF3F00F030B50C0079
S1132DE0083464010568645D64071C25002C01D166
S1132DF0280030BD0B4C4D012A51621954689B04C4
S1132E001B09094D2C402343536053689B0B9B03C0
S1132E105360036808314901591840230B71002598
S1132E20E6E7C04660050020FF3F00F0094B19604B
S1132E305A6809491140802292020A435A605A682A
S1132E40920B92035A600268402182235B00D154A2
S1132E500020704760050020FF3F00F002681378EF
S1132E6002210B43137002689378022BFCD0704745
S1132E70F0B5DE4657464E464546E0B583B0C44BF2
S1132E801F683D682B78DB0914D12E8CB6B2002E56
S1132E9000D02DE2AE8BB6B2AB235B00FB5AAA2264
S1132EA05200BD5A1D4035400024BA4FB84B9946D4
S1132EB0984608E22B8C9BB2002B00D13DE1288C74
S1132EC080B2B54B984704001F2800D935E10300B0
S1132ED008335B01ED18ED79EDB2AB0741D0AF4A91
S1132EE001238340116899431160030008335B0197
S1132EF03A68944663440322DA713B18AE331B7874
S1132F00DB072ED5A64B18703A68030008335B0123
S1132F109B5C9B079B0F012B00D194E04201A14BCA
S1132F209B185A681201920C90B29D494A805A68C3
S1132F309204920C8A805A689B490A405A6000287D
S1132F4007D16201974B9B185B689B049B0C944AC6
S1132F5053808F4B1868A31C1B01C3185B689049EE
S1132F6098476B071FD58A4B1868026823000833FB
S1132F705B019B5C9B065B0F022B75D0230008331F
S1132F805B019B5C9B065B0F032B00D19EE06201FF
S1132F90844B9B1800229A72036822000832520163
S1132FA09B180422DA712B0715D57C4A0123A34010
S1132FB0116899431160764B1868230008335B014C
S1132FC00268944663440822DA710319AE331B780D
S1132FD09B0700D594E0EB0615D5704A0123A34066
S1132FE01168994311606A4B1868230008335B0128
S1132FF00268944663441022DA710319AE331B78D5
S11330005B0700D58AE0AB0600D42FE1634A0123B5
S1133010A3401168994311605D4B1868230008337D
S11330205B010268944663442022DA710319AE33CB
S11330301B781B0700D419E159490C7024010419A9
S1133040236B984712E14201564B9B185A6892042D
S1133050920C53494A805A681201920C8A805A6829
S1133060920B92035A6074E7230008335B019B5C64
S11330709B079B0F012B81D161014A4B5B180833DD
S11330809B78DB0700D479E7444A0123A340116805
S1133090994311606201434B9B1800229A722300EA
S11330A008335B010268944663440422DA7103190D
S11330B0AE331B789B0700D475E739490C70102395
S11330C04B702301C3189B6A98476CE723000833AD
S11330D05B019B5C9B079B0F012B00D057E76201B0
S11330E0304B9B1800229A72230008335B0102685C
S11330F0D2180421D1710268D31810225A7152E7F0
S113310027490C706201274B9B18DB891F2213404F
S11331104B702301C3189B6A98475CE720490C70E5
S11331206201204B9B185B681B019B0C4B802301A5
S1133130C318DB6A0021984765E7AC8BA4B2630728
S113314038D50423AB83154B1D68012301201026B9
S113315002E00133082B29D002009A401542F8D02E
S113316039681A0008325201525C9206520F032A3F
S1133170EFD11A0008325201525C9207920F012AD1
S1133180E7D11A000832520189180E71E1E7C046EE
S113319090010020344000006D3B0000A00100209D
S11331A0A401002060050020FF3F00F09D33FB5C7C
S11331B0DB0762D423070BD50022AF4B1A60AF4B59
S11331C018680823026893839D33C35C9B0758D413
S11331D0630608D5A94B18684023026893836533B6
S11331E0C35CDB0650D4A30608D5A44B186820237F
S11331F0026893838533C35C1B0748D4E30608D570
S11332009E4B18681023026893839533C35C5B0755
S113321040D423060BD50022974B1A60974B1868AD
S11332208023026893832533C35C9B0635D4E3056E
S11332300CD50022904B1A60904B186880235B00D9
S1133240026893835B3BC35C5B0629D4A3050DD55D
S11332500022894B1A60894B186880239B000268FE
S113326093835C3BFF3BC35C7F2B1CD803B03CBC0B
S113327090469946A246AB46F0BD7B683800984715
S113328098E783689847A3E743699847ABE70369DE
S11332909847B3E7C3689847BBE783699847C6E78D
S11332A0C3699847D2E7036A9847DFE723002E33C0
S11332B09B00424612689B587149424610689847E1
S11332C00134072CD2D06300DB5B334203D04A467F
S11332D01268126893832B42F2D0062CE6D1694B14
S11332E01B891B09802252001340654A1360DDE7E5
S11332F03C005934FF340023012294465F32914646
S1133300503A92460D3A9346B8462F00C3E02A003D
S11333103D00474690465B01ED180823FF33EB5C04
S11333205B0615D540220823FF33EA54883BFF3B54
S113333042461343544A937160230B4296D0019B37
S11333401B01FB18E0331B684F49380098478DE791
S11333500823FF33EB5C9B06EED520220823FF33C2
S1133360EA54494B42469A71E6E73D004746019AC2
S1133370130008335B01ED181023EB71BB186133A4
S1133380FF331B78DB0600D470E7100052013D4B7D
S11333909B185B689B049B0C3B490B800301FB1847
S11333A0DC331B684046984760E72A003D004746E7
S11333B090465B01ED180823FF33EB5C9B071ED599
S11333C002220823FF33EA542F48883BFF3B42463E
S11333D013438371019B5A012A4B9B1810335B687A
S11333E09B049B0C43808B0700D13FE7019B0D336B
S11333F01B01FB185B6824493800984736E708230B
S1133400FF33EB5CDB07EED501220823FF33EA54DC
S11334101D4843468371019B5B011A4AD2185368C5
S11334209B049B0C038053681B019B0C8380DAE78D
S11334300822FF329A5C520779D504200822FF3211
S11334409854019842010F4B9B189B7A9B0705D512
S11334500C4B9B189A7A022082439A720A4B42467A
S11334609A71019B08335B013A6894466344DB79A3
S1133470DB075CD5FAE6C046A001002090010020DD
S113348094010020600500209801002001330134DC
S1133490082B00D1EAE6DDB2019332001A416146FD
S11334A01142F3D01A0008325201BA18D279D2B2BA
S11334B0217A1140207801404846104200D026E786
S11334C05046104200D050E75846104200D06CE7F6
S11334D00C201042DAD02A003D00474690465B019A
S11334E0EB180822FF329A5C1207A1D5043808228F
S11334F0FF32985401984201134B9B189B7E9B0703
S113350005D5114B9B189A7E022082439A7680231C
S11335105B42424613430D4A9371019B08335B019E
S11335203A6894466344DB799B0700D59EE60C23F6
S11335300B4200D19AE6019B1B01FB18D8331B6890
S113354002493800984791E6600500209801002060
S1133550002303700133437003228270C3707047E9
S1133560F0B5CE46474680B583B004000D00160082
S11335700023674A1360674A1060216066488269C5
S113358001210A43826101AF7B70B970FB7006337D
S113359099463B7039001820604B984698474B4633
S11335A03B7039001920C047B3786A4613706946E6
S11335B004205B4B984704205A4B98472B780122F0
S11335C013432B70AB78DB07FCD4574B1B689B036E
S11335D0DB0E1F2B00D18FE02A8D9B0153490A403B
S11335E013432B85504B1B685B02DB0E1F2B00D152
S11335F084E02A8D1F218A4313432B854A4B1B6881
S11336009B015B0F072B00D17AE02A8D1B034849ED
S11336100A4013432B8532782978D2017F230B404B
S113362013432B7071782B7801220A4092000421F5
S11336308B4313432B703F4B6B62F378012B61D0A8
S1133640002B06D1226813890C218B4304210B43E0
S113365013818022520000213648374B9847231D9E
S113366021002431002204C38B42FCD12100A43167
S113367000221A605A609A60DA6010338B42F8D1E3
S11336800023A422A3540132A3542300A63321000F
S1133690AE3100221A701A7201339942FAD1230012
S11336A0B8332100D431002204C38B42FCD1210061
S11336B05531FF3100221A605A609A60DA60103383
S11336C08B42F8D10023AA225200A3520232A35201
S11336D023005933FF336134FF3400221A701A7205
S11336E00133A342FAD14022144B1A60002003B0E4
S11336F00CBC90469946F0BD1A3B6DE7023B78E757
S1133700043B82E72268138908318B431381A0E7C5
S1133710A00100209001002000040040C91A00000C
S1133720CD1900005D1900001C6080003FF8FFFF08
S1133730FF8FFFFF60050020073C000000E100E070
S1133740FEE7000010B51A4A1A4B9A4211D01A002B
S1133750194B9A420DD2194A03339B1A9B08013321
S11337609B000022134812498C58845004329A4218
S1133770FAD1134A134B9A420AD2D34311495B1824
S113378003218B4304339B18002102C29342FCD1D2
S11337900D4AFF210D4B8B4393600D4A53687F39CB
S11337A00B4353600B4B98470B4B9847FEE7C046BF
S11337B06840000000000020E00000200400002019
S11337C0E00000206006002000ED00E000000000A2
S11337D000400041AD3B0000DD37000010B582B071
S11337E00124104B1C70BFF35F8F62B60E4B9847D9
S11337F00E4B98470E4B98470E4B98470E4B9847E5
S11338000E4B984701A94C7000238B700C70292033
S11338100B4B9847802292000A4B9A610A4CA047AE
S1133820FDE7C046DC000020F9120000FD1A00008C
S1133830DD0600008506000075010000010D000092
S1133840D512000080280040D901000010B5014BBA
S1133850984710BDD103000010B5014B984710BD27
S1133860E1030000830704D480229200034B9A6191
S1133870704780229200014B5A61F9E7802800408A
S1133880002243088B4274D303098B425FD3030A9B
S11338908B4244D3030B8B4228D3030C8B420DD3AE
S11338A0FF22090212BA030C8B4202D3121209023C
S11338B065D0030B8B4219D300E0090AC30B8B427A
S11338C001D3CB03C01A5241830B8B4201D38B0328
S11338D0C01A5241430B8B4201D34B03C01A5241CD
S11338E0030B8B4201D30B03C01A5241C30A8B4210
S11338F001D3CB02C01A5241830A8B4201D38B02FB
S1133900C01A5241430A8B4201D34B02C01A52419E
S1133910030A8B4201D30B02C01A5241CDD2C30910
S11339208B4201D3CB01C01A524183098B4201D38C
S11339308B01C01A524143098B4201D34B01C01A77
S1133940524103098B4201D30B01C01A5241C308EF
S11339508B4201D3CB00C01A524183088B4201D35E
S11339608B00C01A524143088B4201D34B00C01A4A
S11339705241411A00D20146524110467047FFE7B6
S113398001B5002000F0F0F802BDC0460029F7D0D0
S113399076E7704703460B437FD4002243088B42EB
S11339A074D303098B425FD3030A8B4244D3030BC2
S11339B08B4228D3030C8B420DD3FF22090212BA87
S11339C0030C8B4202D31212090265D0030B8B4203
S11339D019D300E0090AC30B8B4201D3CB03C01AED
S11339E05241830B8B4201D38B03C01A5241430BC8
S11339F08B4201D34B03C01A5241030B8B4201D3B8
S1133A000B03C01A5241C30A8B4201D3CB02C01A22
S1133A105241830A8B4201D38B02C01A5241430A9A
S1133A208B4201D34B02C01A5241030A8B4201D389
S1133A300B02C01A5241CDD2C3098B4201D3CB0130
S1133A40C01A524183098B4201D38B01C01A5241DF
S1133A5043098B4201D34B01C01A524103098B42E3
S1133A6001D30B01C01A5241C3088B4201D3CB00CE
S1133A70C01A524183088B4201D38B00C01A5241B1
S1133A8043088B4201D34B00C01A5241411A00D261
S1133A9001465241104670475DE0CA0F00D04942CA
S1133AA0031000D34042534000229C4603098B423A
S1133AB02DD3030A8B4212D3FC22890112BA030AC2
S1133AC08B420CD3890192118B4208D38901921144
S1133AD08B4204D389013AD0921100E08909C309C9
S1133AE08B4201D3CB01C01A524183098B4201D3CB
S1133AF08B01C01A524143098B4201D34B01C01AB6
S1133B00524103098B4201D30B01C01A5241C3082D
S1133B108B4201D3CB00C01A524183088B4201D39C
S1133B208B00C01A5241D9D243088B4201D34B00B7
S1133B30C01A5241411A00D20146634652415B10F9
S1133B40104601D34042002B00D5494270476346DA
S1133B505B1000D3404201B5002000F005F802BD1F
S1133B600029F8D016E770477047C0464142084024
S1133B701C2101231B04984201D3000C10391B0A99
S1133B80984201D3000A08391B09984201D300095D
S1133B90043902A2105C401A7047C0461B1C1D1D4C
S1133BA01E1E1E1E1F1F1F1F1F1F1F1F70B5002656
S1133BB00C4D0D4C641BA410A64209D1002600F044
S1133BC043FA0A4D0A4C641BA410A64205D170BDE9
S1133BD0B300EB5898470136EEE7B300EB5898472B
S1133BE00136F2E754400000544000005440000005
S1133BF058400000002310B59A4200D110BDCC5C9F
S1133C00C4540133F8E703008218934200D170478B
S1133C1019700133F9E70000000000000000000003
S1133C202900000035000000010000000000000031
S1133C301E0000003A000000020000000000000026
S1133C401F0000003B000000030000000000000013
S1133C50200000003C000000040000000000000000
S1133C60210000003D0000000500000000000000ED
S1133C70220000003E0000000600000000000000DA
S1133C80230000003F0000000700000000000000C7
S1133C9024000000400000000800000000000000B4
S1133CA025000000410000000900000000000000A1
S1133CB026000000420000000A000000000000008E
S1133CC027000000430000000B000000000000007B
S1133CD04C000000FFFFFFFF000000000100000097
S1133CE02B000000FFFFFFFF0100000001000000A7
S1133CF01400000044000000020000000100000065
S1133D001A0000004500000003000000010000004C
S1133D1008000000FFFFFFFF040000000100000096
S1133D2015000000FFFFFFFF050000000100000078
S1133D3017000000FFFFFFFF060000000100000065
S1133D401C000000FFFFFFFF07000000010000004F
S1133D50180000002F00000008000000010000000F
S1133D600C000000FFFFFFFF09000000010000003D
S1133D7012000000330000000A00000001000000EF
S1133D8013000000FFFFFFFF0B0000000100000014
S1133D902D000000FFFFFFFF0000000002000000F4
S1133DA0FFFFFFFFFFFFFFFF010000000200000014
S1133DB004000000340000000200000002000000C3
S1133DC016000000FFFFFFFF0300000002000000D8
S1133DD007000000FFFFFFFF0400000002000000D6
S1133DE009000000FFFFFFFF0500000002000000C3
S1133DF00A000000FFFFFFFF0600000002000000B1
S1133E000B000000FFFFFFFF07000000020000009E
S1133E100D000000FFFFFFFF08000000020000008B
S1133E200E000000FFFFFFFF090000000200000079
S1133E300F000000FFFFFFFF0A0000000200000067
S1133E40310000002E0000000B0000000200000002
S1133E502A000000FFFFFFFF000000000300000035
S1133E60FFFFFFFFFFFFFFFF010000000300000052
S1133E701D000000FFFFFFFF020000000300000020
S1133E801B000000FFFFFFFF030000000300000011
S1133E9006000000FFFFFFFF040000000300000015
S1133EA019000000FFFFFFFF0500000003000000F1
S1133EB005000000FFFFFFFF0600000003000000F4
S1133EC011000000FFFFFFFF0700000003000000D7
S1133ED010000000FFFFFFFF0800000003000000C7
S1133EE036000000FFFFFFFF090000000300000090
S1133EF037000000FFFFFFFF0A000000030000007E
S1133F00520000004B0000000B0000000300000002
S1133F1028000000FFFFFFFF000000000400000075
S1133F20FFFFFFFFFFFFFFFF010000000400000090
S1133F30FFFFFFFFFFFFFFFF02000000040000007F
S1133F40FFFFFFFFFFFFFFFF03000000040000006E
S1133F50FFFFFFFFFFFFFFFF04000000040000005D
S1133F602C000000FFFFFFFF05000000040000001C
S1133F70FFFFFFFFFFFFFFFF06000000040000003B
S1133F80FFFFFFFFFFFFFFFF07000000040000002A
S1133F9030000000FFFFFFFF0800000004000000E5
S1133FA038000000FFFFFFFF0900000004000000CC
S1133FB050000000FFFFFFFF0A00000004000000A3
S1133FC0510000004E0000000B000000040000003F
S1133FD04F000000FFFFFFFF7E1300007A13000074
S1133FE07A130000E4130000E413000094130000AB
S1133FF0841300009A130000D2130000541500002B
S11340003415000034150000E015000046150000CA
S1134010621500003815000070150000C41500007A
S1134020502A00005E2A0000F82A0000982B0000A5
S1134030FC2B000004000800700080000100000157
S113404000020000030C1060F8B5C046F8BC08BCC0
S11340509E467047DD000000F8B5C046F8BC08BCB9
S10B40609E467047B500000004
S113406801000000401F0000080000005D07000078
S11340789D070000A90700001D07000000000000BC
S113408805010906A101050719E029E7150025011D
S113409875019508810281011900296515002565B6
S11340A875089506810005081901290515002501DB
S11340B875019505910295039101C00094000020B3
S11340C8680000200000000070000020A800002004
S11340D809022200010100803209040000010300E2
S11340E80100092111010001223B00070581030891
S11340F8000200001201000200000008EB03012482
S113410800010102000100000C000020000300006F
S11341180000000000000000000000000000000093
S1134128000000000403090448334E4735540000D6
S11341384A48204B6579626F61726400010000008F
S903374580
